:040000006F00F02C71
:100004000000000000000000600B0000D40B0000A2
:1000140000000000CC0A0000000000000000000006
:10002400CC0A0000CC0A0000000000000000000020
:10003400841C00000000000090020000000000008A
:10004400CC0A0000CC0A0000CC0A0000CC0A000054
:10005400CC0A0000CC0A0000AE1400002A150000EF
:10006400A6150000221600009E160000CC0A00000F
:10007400CC0A0000CC0A0000CC0A0000CC0A000024
:10008400CC0A0000CC0A0000CC0A0000CC0A000014
:10009400CC0A0000CC0A0000CC0A00001A170000A9
:1000A400CC0A0000CC0A0000CC0A0000CC0A0000F4
:1000B400CC0A0000CC0A0000CC0A0000CC0A0000E4
:1000C400CC0A0000CC0A0000CC0A0000CC0A0000D4
:1000D400CC0A0000861B0000CC0A0000CC0A0000F9
:1000E400DC170000CC0A0000CC0A0000CC0A000097
:1000F400CC0A0000CC0A0000CC0A0000CC0A0000A4
:1001040000000000CC0A0000CC0A0000CC0A000069
:10011400CC0A0000CC0A0000CC0A0000CC0A000083
:10012400CC0A0000CC0A0000CC0A0000CC0A000073
:10013400CC0A0000CC0A0000CC0A0000CC0A000063
:10014400CC0A0000CC0A0000CC0A0000CC0A000053
:10015400CC0A0000CC0A0000CC0A0000CC0A000043
:10016400CC0A0000CC0A0000CC0A0000CC0A000033
:10017400CC0A0000CC0A0000CC0A0000CC0A000023
:10018400CC0A0000CC0A0000CC0A0000CC0A000013
:10019400CC0A0000CC0A0000CC0A0000CC0A000003
:1001A400000000000000000000000000000000004B
:0C01B4000000000000000000000000003F
:1001C00097020120938202E4938202E0739002344A
:1001D00003210500224573100530B1A819712320B1
:1001E000250006C006C216CAF322003093F2820030
:1001F000638402009302000816C412C81ACC1ECEF3
:1002000022D026D22AD42ED632D836DA3ADC3EDEB6
:10021000C2C0C6C2CAC4CEC6D2C8D6CADACCDECE26
:10022000E2D0E6D2EAD4EED6F2D8F6DAFADCFEDE96
:1002300003A1050009A002457310153492403785CB
:10024000000013050580732005302245732005301A
:100250004242D2426243F243025492542255B25572
:100260004256D2566257F257064896482649B64932
:10027000464AD64A664BF64B065C965C265DB65DF2
:10028000465ED65E665FF65F09617300203000004F
:10029000197116CA9302000816C49302000273A0D3
:1002A000428006C212C81ACC1ECE22D026D22AD430
:1002B0002ED632D836DA3ADC3EDEC2C0C6C2CAC456
:1002C000CEC6D2C8D6CADACCDECEE2D0E6D2EAD4E6
:1002D000EED6F2D8F6DAFADCFEDE73110134EF3036
:1002E000F012EF30C032EF30D015731101341384A7
:1002F00041830329040063040902232004007325B9
:1003000010342AC01384C182044023A02400138423
:100310000183044003A10400024573101534924088
:10032000B78200009382028073A00230A24273A0C1
:1003300002304242D2426243F24302549254225566
:10034000B2554256D2566257F25706489648264949
:10035000B649464AD64A664BF64B065C965C265D25
:10036000B65D465ED65E665FF65F0961730020305B
:1003700000003D432A876373C3029377F700BDEF04
:10038000ADE5937606FF3D8ABA960CC34CC30CC705
:100390004CC74107E36BD7FE11E28280B306C3402E
:1003A0008A069702000096966780A6002307B7008A
:1003B000A306B7002306B700A305B7002305B700BF
:1003C000A304B7002304B700A303B7002303B700B7
:1003D000A302B7002302B700A301B7002301B700AF
:1003E000A300B7002300B700828093F5F50F939622
:1003F0008500D58D93960501D58D61B7939627001D
:100400009702000096968682E78086FA9680C1174A
:100410001D8F3E96E374C3F8A5B7411106C622C4EA
:1004200081454945EF10F0155128AA851765000050
:100430001305450DEF50E0000144A54763E3870431
:1004400081454945EF10D015A285176500001305B9
:10045000650CEF3090691305401FEF40901E8545F5
:100460004945EF10F013176500001305250CEF3018
:10047000D0671305401FEF40D01C05041374F40F20
:100480006DBF0145B240224441018280011106CE78
:1004900002C202C402C68545114551218547231277
:1004A000F1008D473EC4C1473EC64C0037150140A0
:1004B00013050580BD22F240056182800A85828095
:1004C000011106CE22CC26CA4AC84EC6AE84B289D5
:1004D000014431A81389140083850400C205C18139
:1004E00037450140130505809D230504CA84635BDD
:1004F0003401930500043745014013050580A92BFD
:100500006DD9C9BF4E85F2406244D2444249B249D6
:1005100005618280970700209387C7CA9C433E9558
:100520001717002013078725636EE50017F70020D3
:100530001307472D636AA700170700202324A7C8C5
:100540003E858280FD57EDBFFD57DDBFB7F7FF1F2A
:1005500003A5477082805C45D9C3370701409307E4
:1005600007408326074010411346F6FFF18E2320F3
:10057000D74003274740144193C6F6FF758FD8C371
:1005800058413E9714431041D18E14C398471441EB
:1005900093C6F6FF758F98C7D847144193C6F6FFE8
:1005A000758FD8C71C454147638CE700370701406A
:1005B00013070740BA9798431441558F98C3828018
:1005C000B707014003A787401441558F23A4E74094
:1005D00003A7C7401441558F23A6E74082805C41A2
:1005E0003707014013070740BA979843144193C651
:1005F000F6FF758F98C38280B707014003A70740B5
:10060000698F83A74741E98F81C709E70145828048
:100610000145828005458280B707014023AAA74093
:1006200082809C4593F8F700C18B81C7DC41B3E819
:10063000F80083C70500A1CF03280500014719A0D2
:100640005CC905079D4763E2E7048547B397E70068
:1006500083D60500FD8EE396D7FE13162700BD4610
:10066000B396C60093C6F6FF33F806013396C8006A
:1006700033680601944513068002E383C6FC130623
:100680008004E390C6FC1CC96DBF2320050103D77D
:1006900005009307F00F63F1E706032845000147C3
:1006A00021A05CC989A005079D4763E5E7041306FF
:1006B00087008547B397C70083D60500FD8EE39476
:1006C000D7FE13162700BD46B396C60093C6F6FFA5
:1006D00033F806013396C800336806019045930647
:1006E0008002E300D6FC904593068004E31DD6FA11
:1006F0001CC955BF2322050182801C45FD8D99C16F
:1007000005458280014582800CC982804CC9828067
:1007100019C20CC982804CC9828093F735008A07C0
:100720003D473317F70093F6C50FB7050140B6955F
:1007300094451347F7FF758F98C598453315F50015
:10074000598D88C58280B7170240DC43B18B1147B1
:100750006381E70821476384E70899C7B7177A00E0
:10076000938707201CC131A0B7177A009387072011
:100770001CC1371602405C429183BD8B9706002056
:1007800093864688B69703C707001C41B3D7E70096
:100790005CC1584221831D8B36970347070033D72E
:1007A000E70018C558422D831D8BBA9603C7060073
:1007B000B3D7E7005CC5584239830D8B93864180DF
:1007C0003697034707001377F70FB3D7E7021CC923
:1007D0008280B7177A00938707201CC159BF37174B
:1007E00002405C435843C166758FC983BD8B89073E
:1007F000B7F6FF1F83A6C67013961601634506025F
:10080000C5466386D70481462DE337470240032758
:100810000780418B39C337177A0013070720B38746
:10082000E7021CC171A88946638ED700BD46638D5F
:10083000D700C1466380D70281464546E396C7FC90
:10084000C147D9B7C947F5B78546B547FDB7814612
:10085000C9475DBF8146BD4745BF37173D001307F8
:100860000790B387E7021CC1A1A837170240585769
:100870001316F70063570608B7150240D8551183C1
:100880003D8B1306170037177A00130707203357DD
:10089000C70218C1D05521823D8A0DEA13162700E0
:1008A0003297058318C110413717024058573D8BC6
:1008B00005073357E60218C11841B307F7021CC1F8
:1008C000E38906EA1C4185831CC165B58545630A39
:1008D000B600BD456300B60209063307C70218C15A
:1008E000D9B793151700BA9513963500329705833B
:1008F00018C155BF1316270032971316270010C1D1
:100900005DB73717024058573D8B1306170037174E
:100910007A00130707203357C70218C171BF99C562
:10092000371702401C4F5D8D08CF82803717024079
:100930001C4F1345F5FF7D8D08CF8280797106D657
:1009400022D426D22A84AE848356050103D76500BB
:10095000F577FD17F58FD98F2318F5000356C500DD
:1009600083D6450003D7850083D7A500D98ED58FC0
:100970007D771307379F718FD98F2316F500835723
:100980004501C207C18303D7C50093F7F7CFD98FBD
:10099000231AF5006800453BB7470140938707805D
:1009A000630AF404D246139716003697931737005C
:1009B000B69798400A07B3D7E7029306400633D7A5
:1009C000D70293154700370600107D16718F330745
:1009D000D702998F920793872703B3D7D702BD8B8E
:1009E000CD8FC207C1832314F400B2502254925415
:1009F00045618280E24645BF81C98357C5000967CA
:100A0000D98F2316F50082800357C500F977FD17AB
:100A1000F98F2316F500828093F7F50F958305472C
:100A2000B315B700638BE7000947638AE7005105F8
:100A300009CA1C41DD8D0CC182803105D5BF41053D
:100A4000C5BF1C4193C5F5FFFD8D0CC1828093F598
:100A5000F51F2312B500828083570500FD8D99C1D3
:100A6000054582800145828093F7F50F9583854681
:100A70003397B6006383D70289466384D7028357CE
:100A800045017D8FA1818547B395B7008357050048
:100A9000FD8D01CF89ED014582808357C5007D8F93
:100AA000D5B7835705017D8FF1BF0145828005458C
:100AB0008280A1818547B397B700C207C18393C7DE
:100AC000F7FFC207C1832310F500828001A0739055
:100AD0001234970100209381E1EE17F100201301F9
:100AE0006152177500001305252A97F5FF1F93859E
:100AF00065511386818163FAC5008322050023A016
:100B0000550011059105E3EAC5FE1385818197150E
:100B100000209385A5C66377B50023200500110545
:100B2000E36DB5FEFD42739002BCFD4273904280BE
:100B3000B7820000938202807390023097F2FFFF29
:100B40009382824C93E2320073905230EF00802304
:100B5000973200009382E2C2739012347300203007
:100B60005D7182E686E48AE28EE012FE16FC1AFAD5
:100B70001EF82AF62EF432F236F03AEE3EEC42EA55
:100B800046E872E676E47AE27EE073110134EF30F3
:100B9000E007176500001305A59DEF300075EF30E5
:100BA000400A731101343660A66016618661727264
:100BB000E2725273C2733275A275127682767267D0
:100BC000E2675268C268326EA26E126F826F616114
:100BD000730020305D7182E686E48AE28EE012FEC8
:100BE00016FC1AFA1EF82AF62EF432F236F03AEE15
:100BF0003EEC42EA46E872E676E47AE27EE0731181
:100C00000134EF30A000176500001305A595EF3003
:100C1000C06DEF300003731101343660A6601661B9
:100C200086617272E2725273C2733275A275127665
:100C300082767267E2675268C268326EA26E126F85
:100C4000826F616173002030411106C622C41765AE
:100C500000001305E592EF304069592293878180A7
:100C60008C43176500001305E592EF300068F938F2
:100C7000AA85176500001305E592EF300067176538
:100C8000000013052593EF304066EFF03F80854567
:100C90003715014013050580953C85453714014003
:100CA0001305048095341305401FEF4080198545D6
:100CB00013050480A13C1305401FEF408018F1BFCD
:100CC000411102C602C4371702401C43C166D58FCA
:100CD0001CC3B71702409C4337070200F98F3EC47C
:100CE000B24785073EC6A24789E732478567E312C8
:100CF000F7FEB71702409C431397E700635A0700BB
:100D000085473EC4224785476306F700410182803C
:100D100002C4CDBFB7170240D843D8C3D843D8C305
:100D2000D84313670740D8C3D843B706C1FFFD16A1
:100D3000758FD8C3D843B7062900558FD8C39843B9
:100D4000B7060001558F98C3B71702409C4313970D
:100D50006700E35B07FEB7170240D843719BD8C317
:100D6000D84313672700D8C3B7170240DC43B18BC1
:100D70002147E39BE7FE59BF411106C69137B240B8
:100D800041018280411106C6B7170240984313679C
:100D9000170098C3D843B706FFF0758FD8C39843A0
:100DA000B706F7FEFD16758F98C39843B706FCFF8C
:100DB000FD16758F98C3D843B70601FFFD16758FD2
:100DC000D8C39843B70600ECFD16758F98C3370754
:100DD000FF0098C723A607024537B2404101828031
:100DE000B7170240DC43B18B11476386E704214704
:100DF000638AE70481CBB7177A009387072023A47F
:100E0000F18039A0B7177A009387072023A4F180D7
:100E1000B7170240DC439183BD8B17F7FF1F130701
:100E2000671FBA9783C60700138781801C43B3D717
:100E3000D7001CC38280B7177A009387072023A4AA
:100E4000F180F9B7371702405C435843C166758F8C
:100E5000C983BD8B89078946638CD702BD46638BE6
:100E6000D702C146638BD70281464546638AC702D3
:100E700039E33747024003270780418B05C73717FF
:100E80007A0013070720B387E70223A4F18069A043
:100E9000C947C1BF8546B547C9BF8146BD47C9BF20
:100EA000C147F9B737173D0013070790B387E7022B
:100EB00023A4F18095A03717024058571316F70066
:100EC0006352060AB7150240D85511833D8B1306AD
:100ED000170037177A00130707203357C70223A4D8
:100EE000E180D05521823D8A21E2131627003297F6
:100EF000058323A4E1803717024058573D8B05072F
:100F00009385818090413357E60298C11387818091
:100F10001043B387C7021CC3E38C06EE138781809E
:100F20001C4385831CC3EDB58545630BB600BD45E9
:100F30006302B60209063307C70223A4E18065BF36
:100F400093151700BA95139635003297058323A49D
:100F5000E18055B71316270032971316270023A4F4
:100F6000C18051BF3717024058573D8B13061700F9
:100F700037177A00130707203357C70223A4E180ED
:100F800071B7411106C6854513050002493AB240C2
:100F900041018280411106C6854521454932B24052
:100FA00041018280411106C6854511458D3AB24006
:100FB00041018280411106C6854541458D32B240CE
:100FC00041018280411106C6854513050004813A1E
:100FD000B24041018280411106C60146975500008A
:100FE0009385455E17650000130545CCEF00F05E64
:100FF000B240410182809307400663EEA700931739
:10100000450017550000130565653E951841FD57CD
:101010006305F7008280014582800145E5BF4111EB
:1010200006C622C4328413F5F50FF13719C522869E
:101030008355C5000845EFF0AFEDB24022444101B1
:101040008280411106C613F5F50F753709C983551E
:10105000C5000845EFF06FEAB240410182800145CA
:10106000E5BF011106CE22CC26CAB28413F5F50FD6
:10107000593729C92A845C4182975C442312F100C4
:10108000C1473EC68D473EC495C895476387F40265
:101090008547638EF4028D47638EF4028947638F20
:1010A000F40291476380F40499476380F4049D47F8
:1010B0006396F400E1473EC611A002C64C00084406
:1010C000EFF02FD6F2406244D2440561828091470E
:1010D0003EC6EDB7930780023EC6CDB793078004A6
:1010E0003EC6E9BFD1473EC6D1BFF1473EC6F9B7BC
:1010F000011106CE22CC26CA4AC84EC652C4AE84BE
:10110000B28936893A8A13F5F50FF53571C9584514
:101110000144FD4763C987008547B397870063850E
:10112000E7000504FDB77D54BD4763ED870AEF2056
:10113000404F93171400A2971397270097F7FF1FAC
:10114000938747EEBA9783970700638597047D5787
:101150006394E70897F6FF1F9386C6EC13171400F5
:1011600033068700931726003E86B6972390970094
:1011700023A2270123913701B29623A44601EF2031
:10118000004B0145F2406244D2444249B249224AEE
:10119000056182801317140022979316270017F712
:1011A000FF1F130727E836975843E31227FB17F76B
:1011B000FF1F130727E7369703572700E31937F96F
:1011C00017F7FF1F130707E636971847E31147F98C
:1011D000EF20E04501457DB7EF2060451D455DB737
:1011E00019454DB7194579BF411106C622C413F5FB
:1011F000F50F113549C558450144FD4763C98700BE
:101200008547B39787006385E7000504FDB77D54E4
:10121000BD4763E88706EF20C04093171400A297EC
:101220001397270097F7FF1F9387C7DFBA97039796
:101230000700FD576301F70497F6FF1F938686DECC
:10124000131714003306870093172600B6977D56B0
:101250002390C70023A20700239107003A94931715
:101260002400BE9623A40600EF20603C0145B24056
:10127000224441018280EF20803B0145CDBF1945CA
:10128000FDB71945EDB7797106D622D426D24AD0DA
:10129000328413F5F50F85336307051AAA84854751
:1012A0006300F4026315041A544581477D47634D7A
:1012B000F71405473317F7006309D7148507FDB7FF
:1012C00058450144FD4763C987008547B3978700A8
:1012D0006385E7000504FDB77D54BD4763E78716C6
:1012E000EF2020342A8993171400A2971397270020
:1012F00097F7FF1F938707D3BA9703970700FD5708
:101300006307F70CDC40829785450545EFF02FE138
:10131000DC44231AF1000D473ACC3EC202C4054713
:101320003AC893171400A2979396270097F7FF1FC8
:10133000938747CFB69783D727006384E70A13972D
:101340000701418749CB09476383E70A4C08884472
:10135000EFF02FAD9C4437170140130707C0638D92
:10136000E708014537170140638AE708371701404E
:10137000130707406386E7083727014013070780F4
:101380006382E7089375F40FEFF02FB94800EFF090
:101390008F9C0E0497570000938747243E9450403B
:1013A00037E700E0B307C700930600052380D74066
:1013B000935756008546B396C600938707048A075D
:1013C000BA9794C34A85EF2080260145BDA0EF203F
:1013D000002619459DA0930780023ECEA1473EC638
:1013E000B5B7930780043ECEB1473EC685B7914757
:1013F0003ECEC1473EC699BF0545ADB70945BDB70D
:101400000D459DBF1145BDBFFD573D476363F704C3
:101410008E07175700001307671CBA978DCFD84364
:10142000935757008546B396E600938707068A07C9
:1014300037E700E0BA9794C30145B2502254925462
:101440000259456182801945CDBF1945FDB719453F
:10145000EDB71945DDB71945CDB781477D476349DC
:10146000F70005473317F7006305A7008507FDB7A9
:10147000FD57139717003E979316270017F7FF1F86
:10148000130747BA3697544395C2411106C61397BE
:101490001700BA971397270097F7FF1F938787B80E
:1014A000BA9788478296B2404101828082805D71FE
:1014B00082E686E48AE28EE012FE16FC1AFA1EF834
:1014C0002AF62EF432F236F03AEE3EEC42EA46E8E4
:1014D00072E676E47AE27EE073110134EF20007365
:1014E0000545EFF06F9105EDEF20A0757311013404
:1014F0003660A660166186617272E2725273C273C0
:101500003275A275127682767267E2675268C26897
:10151000326EA26E126F826F6161730020300545DA
:101520002D3F0545EFF04F8FC1B75D7182E686E430
:101530008AE28EE012FE16FC1AFA1EF82AF62EF443
:1015400032F236F03AEE3EEC42EA46E872E676E4F3
:101550007AE27EE073110134EF20406B0945EFF031
:10156000AF8905EDEF20E06D731101343660A660A0
:10157000166186617272E2725273C2733275A2751D
:10158000127682767267E2675268C268326EA26E25
:10159000126F826F61617300203009457D3D0945FE
:1015A000EFF08F87C1B75D7182E686E48AE28EE054
:1015B00012FE16FC1AFA1EF82AF62EF432F236F053
:1015C0003AEE3EEC42EA46E872E676E47AE27EE003
:1015D00073110134EF2080631145EFF0EF8105EDC9
:1015E000EF202066731101343660A66016618661B3
:1015F0007272E2725273C2733275A275127682767B
:101600007267E2675268C268326EA26E126F826FB2
:10161000616173002030114589351145EFE0DFFF2E
:10162000C1B75D7182E686E48AE28EE012FE16FCA6
:101630001AFA1EF82AF62EF432F236F03AEE3EECA2
:1016400042EA46E872E676E47AE27EE0731101341B
:10165000EF20C05B2145EFE03FFA05EDEF20605E33
:10166000731101343660A660166186617272E2728F
:101670005273C2733275A275127682767267E26710
:101680005268C268326EA26E126F826F616173001F
:1016900020302145D9332145EFE01FF8C1B75D71F6
:1016A00082E686E48AE28EE012FE16FC1AFA1EF842
:1016B0002AF62EF432F236F03AEE3EEC42EA46E8F2
:1016C00072E676E47AE27EE073110134EF20005492
:1016D0004145EFE07FF205EDEF20A0567311013494
:1016E0003660A660166186617272E2725273C273CE
:1016F0003275A275127682767267E2675268C268A6
:10170000326EA26E126F826F6161730020304145AC
:10171000A9334145EFE05FF0C1B75D7182E686E431
:101720008AE28EE012FE16FC1AFA1EF82AF62EF451
:1017300032F236F03AEE3EEC42EA46E872E676E401
:101740007AE27EE073110134EF20404C1305000271
:10175000EFE09FEA11E513050004EFE0FFE939CD62
:1017600013050002DD3913050004C539130500080F
:10177000ED3113050010D53113050020F93913059B
:10178000003EEFE07FE9EF20C04B7311013436607B
:10179000A660166186617272E2725273C27332750C
:1017A000A275127682767267E2675268C268326EFC
:1017B000A26E126F826F6161730020301305000802
:1017C000EFE09FE351FD13050010EFE0FFE249F960
:1017D00013050020EFE05FE25DD559B75D7182E649
:1017E00086E48AE28EE012FE16FC1AFA1EF82AF649
:1017F0002EF432F236F03AEE3EEC42EA46E872E679
:1018000076E47AE27EE073110134EF202040130584
:101810000040EFE07FDE19E5056513050580EFE088
:10182000BFDD25C1130500400D3905651305058091
:101830002D3105651D3109650D3111653939216578
:1018400029394165130505C0EFE01FDDEF20603F3A
:10185000731101343660A660166186617272E2729D
:101860005273C2733275A275127682767267E2671E
:101870005268C268326EA26E126F826F616173002D
:1018800020300565EFE05FD751FD0965EFE0DFD659
:1018900051F91165EFE05FD651F52165EFE0DFD535
:1018A00055D549B701458280411106C622C426C2DA
:1018B000AA842041930550520848EFF0EF9A11E5B1
:1018C000B240224492444101828085452685EF0042
:1018D000500C930550520848EFF0AF9DD5B7011159
:1018E00006CE22CC26CA4AC820419C411CC02316E1
:1018F0000400B1472315F400DC41BD8B2147638808
:10190000E70025476381E7022312040019A0231290
:101910000400DC4191838D8B99CB0547638BE702F3
:101920002313040039A085672312F400DDB72313C5
:101930000400DC4199838D8B05476380E70413978E
:101940008701618719CB0947638EE70223140400DE
:1019500039A089672313F400E9BF23140400184851
:10196000B7470140938707806303F7020145F240C0
:101970006244D24442490561828093070060231487
:10198000F400F1BF930700402314F400C9BF85455C
:1019900011651105EFE0BFF8930700202312F10055
:1019A0000D494AC4E1473EC64C00B71401401385B7
:1019B0000480EFE01FC7930700402312F1004AC4E0
:1019C00091473EC64C0013850480EFE09FC5A28579
:1019D0000848EFE0BFF685450848EFF0EF8179B79A
:1019E000397106DE22DC26DA4AD84ED67167130733
:1019F0000720F247C19B93E7870093F7F7C0B7062C
:101A000000FC9386F63FF58FC166D58FB70600C4FC
:101A1000FD16F58F3ECE138401929306500354C8F1
:101A2000B74601409386068014C89384818C9756EC
:101A300000009386E627F4C0B8C4FCC418C023167F
:101A40000400B1472315F4002312040023130400FB
:101A500023140400854511651105EFE05FEC930741
:101A600000202316F1008D494EC8E1473ECA6C00A4
:101A70003719014013050980EFE0BFBA9307004012
:101A80002316F1004EC891473ECA6C001305098029
:101A9000EFE03FB9A2850848EFE05FEA85450848D6
:101AA000EFE09FF5A286130630109755000093854E
:101AB0006521268549250145F2506254D254425988
:101AC000B25921618280411106C622C4204193058A
:101AD00000020848EFE05FF811C91C4803D5470031
:101AE0001375F50FB2402244410182807D55DDBF60
:101AF000411106C622C426C2AE84204193050004CB
:101B00000848EFE07FF57DD91C48C204C1802392CC
:101B100097000545B2402244924441018280411120
:101B200006C63C414147638CE50245476395E502A3
:101B3000D44B13D7560005463316D60013070706B5
:101B40000A07B7E600E0369710C3014693055052E6
:101B5000884BEFE07FEC0145B24041018280D44BDD
:101B600013D7560005463316D600130707040A0795
:101B7000B7E600E0369710C3054693055052884BF0
:101B8000EFE09FE9C9BF5D7182E686E48AE28EE0FC
:101B900012FE16FC1AFA1EF82AF62EF432F236F06D
:101BA0003AEE3EEC42EA46E872E676E47AE27EE01D
:101BB00073110134EF2080051385818CF531EF20FE
:101BC0004008731101343660A66016618661727236
:101BD000E2725273C2733275A275127682767267A0
:101BE000E2675268C268326EA26E126F826F6161E4
:101BF00073002030B7E700E041572386E740238792
:101C0000E740056723A0E710116723A0E710B7F7A7
:101C100000E023A0070023A207008146014794C7E4
:101C2000D8C71306F5FF814690CBD4CB3D4798C368
:101C30000145828017E5FF1F1305456C828017F56B
:101C4000FF1F1305A56B8280411106C622C493872E
:101C5000818088439307803E3355F502613FEF1042
:101C60007026C93F2A84E13FAA852285EF2010050E
:101C70001755000013050505EF204063B2402244CC
:101C8000410182805D7182E686E48AE28EE012FE86
:101C900016FC1AFA1EF82AF62EF432F236F03AEE54
:101CA0003EEC42EA46E872E676E47AE27EE07311C0
:101CB0000134EF10B075B7F700E023A20700EF1072
:101CC000101AEF101078731101343660A660166197
:101CD00086617272E2725273C2733275A2751276A5
:101CE00082767267E2675268C268326EA26E126FC5
:101CF000826F6161730020301DC691476397F602C1
:101D0000411106C622C426C23684B2847C419C4757
:101D10008355060082972391A4002285B240224475
:101D200092444101828001458280014582800DC636
:101D300091476395F602411106C622C43684B287E4
:101D4000784158430356260083D507000297228521
:101D5000B240224441018280014582800145828057
:101D600019CE411106C6B2877841184303562600A2
:101D700083D5070002970145B240410182807D551D
:101D80008280411106C697F7FF1F93872757F843B4
:101D900018432E86AA853E850297B2404101828073
:101DA000411106C697F7FF1F93874755F8435843DD
:101DB0002E86AA853E850297B2404101828041115C
:101DC00006C697F7FF1F93876753F8431847AA85FE
:101DD0003E850297B24041018280411106C697F7C5
:101DE000FF1F9387A7514947D8CB23A0070223A2FF
:101DF000070223A4070223A6070223A80702170746
:101E000000001307A7EFD8DB17070000130767F2DE
:101E100098DF170700001307E7F4D8DFECC3B0C35F
:101E20000D46AA853E85EF10101D0145B2404101C7
:101E3000828023280504232A05047C419C4389CB06
:101E4000411106C6930585048297B2404101828004
:101E50000145828099E236858280011106CE22CC2E
:101E600026CA4AC84EC6AA843289B689368409A8C9
:101E7000FC409C47830509002685829705097D144F
:101E80000DC003470900A947E314F7FE83D7A40157
:101E900093F70704F1DFFC409C47B5452685829700
:101EA000C1BFB38689403685F2406244D24442497C
:101EB000B249056182808947638EF500411106C6EB
:101EC0008D47638BF5028547638EF5007C41DC43CB
:101ED000829705A08357850193E70702231CF5002D
:101EE000014582808357850193F7F7FD231CF50098
:101EF0000145B240410182801DCA584229834207F0
:101F000041837C45A983C207C1836305F7008347EA
:101F1000C50185E31C423CC55C427CC58347C501C5
:101F200099CB7C419C43B28582970145D9B7014545
:101F3000C9B71D457DBF01456DBF011106CE22CC3D
:101F400026CA4AC84EC652C456C2368ADDCA2A8933
:101F500032848357A50193F707108DEFB68485C0AF
:101F600083274904DC474A858297FD576309F500BA
:101F70002300A4000504FD14A947E312F5FE330570
:101F80009A40F2406244D2444249B249224A924ABB
:101F90000561828083290505B68425A003A78900F1
:101FA00015EBEF10C06833059A40E1BF03A7890025
:101FB00085476305F704EF1080672300540105048B
:101FC000FD14F5D0EF10E06583D7690003D7490011
:101FD000E386E7FC03A709003E97834A07008507CD
:101FE000C207C1832393F9000327C9042983420749
:101FF0004183E3EDE7FA239309004DBF23A40900D1
:102000005DBF3685BDBF0347C501854763E7E70070
:102010008357A50193F7071099E301458280411189
:1020200006C622C42A842849EF20806A2328040493
:102030008357A40193F7F7EF231DF4007C40DC43A2
:1020400013060010C545228582970145B2402244FF
:102050004101828093F7051091C7035785011377DB
:10206000071071C713F7054011C703578501137790
:10207000074061C3411106C622C426C24AC013F7F5
:10208000050401EB0357A501137707041DEF8144F5
:1020900019A0930400042A8493F5F50F231DB500BD
:1020A00038491DC789C793E50510231DB5007C4835
:1020B000A5CF8357A401C58F231DF4000145B2406D
:1020C0002244924402494101828093040004E1B712
:1020D00081E723280504E1BF684529814205418144
:1020E0003105EF20A0462A8931052320A90070443C
:1020F0002982420641828145EF1090522312090045
:102100002313090023240900232824058357A4014D
:1021100093E70710231DF4007C40DC4313060010F6
:10212000C1452285829761B7232A040459B76155B6
:10213000828061558280411106C6232A0500232032
:10214000050223220502170700001307C7CE18D582
:1021500017070000130747F058D5170700001307AB
:10216000C7EA18D917070000130767DD58D9170702
:102170000000130767CE18DD170700001307E7D329
:1021800058DD34C142064182EF10E066B2404101A1
:10219000828093F5F50F85476383F50082804111B6
:1021A00006C622C426C24AC0AA84204909A80357E9
:1021B0004400835764006304F704EF104047FC4079
:1021C000DC47268582972A89FD57630AF504EF10BC
:1021D00040451C4003574400BA972380270183578A
:1021E00044008507C207C1832312F400F844298301
:1021F00042074183E3EDE7FA231204004DBF850750
:10220000C207C1832313F400054718C4F844298387
:1022100042074183E3E3E7FA2313040079BF9C50AC
:102220008DC3EF1000400357440083576400636080
:10223000F7023304F740EF10803F9C50A2852685BB
:102240008297B24022449244024941018280E04494
:10225000298042044180998F1D8CF1BF37E700E04F
:10226000B707EFBE938707083CC70145828041113D
:1022700006C6175500001305E5EDEF2000070145E0
:10228000B24041018280411106C622C426C2AA84FE
:10229000004101A81755000013054521EF20E00477
:1022A0000040630E94009305C4FE1755000013050B
:1022B000A51FEF2080031C40E39E97FCD5B7B240DA
:1022C0002244924441018280411106C622C426C2A2
:1022D0004AC02E89EF103044AA84EF20F000032476
:1022E000090011A00040630A2401130544FFEF1008
:1022F0009042E3D9A4FEAA84F5B7EF20F000A147ED
:1023000063CA970091C82685B2402244924402498C
:1023100041018280A144C5BFA144F5B7411106C661
:1023200022C426C24AC0AA84AA85175500001305F4
:1023300025C9593F2A8917560000130666C8AA8581
:1023400017550000130545C8EF10307ACA8701A859
:1023500017550000130585CBEF103079A287138441
:10236000F7FFFDF717550000130585CAEF10F0774A
:102370008040ADA017550000130545CEEF10F07654
:1023800049A817550000130525CEEF10107651A06F
:1023900017550000130505CEEF1030759DA8175591
:1023A00000001305E5CDEF105074A5A008500C48AF
:1023B000B305B640B306F640AA9693074006B38627
:1023C000F6025C50585CB3D6A6022A86AA95175529
:1023D00000001305A5CBEF10507100406305940475
:1023E00003479402930644FF2146CA85175500000F
:1023F000130505C6EF10706F83478402BD8B054738
:10240000E38AE7F60947E38EE7F6D9D31147E38875
:10241000E7F8504CB28783C6070013073002E397F2
:10242000E6F88507CDBF0145B240224492440249F7
:1024300041018280411106C60545EF20E0351105B6
:10244000F13DB24041018280011106CE22CC26CA64
:102450004AC84EC62A89AA8517550000130545B0FB
:10246000A535AA8917560000130686AFAA85175509
:1024700000001305A5AFEF105067CE8701A81755D0
:1024800000001305A5B8EF105066A2871384F7FF6C
:10249000FDF717550000130525AFEF1010658324D5
:1024A000090015A02146CE8517550000130545AF3C
:1024B000EF10B0632285C13B174500001305850767
:1024C000EF10B062844063862405138484009C442A
:1024D000630DF400938644FF03D7040122868147ED
:1024E0001042E301C4FC8507E5BF938644FF03D790
:1024F00004012286814710426304C4008507E5BFBA
:102500002146CE8517550000130585AAEF10F05D12
:1025100055BF0145F2406244D2444249B249056187
:102520008280411106C60945EF2000271105293F89
:10253000B24041018280011106CE22CC26CA4AC88F
:102540004EC62A89AA85175500001305A585AD3BFF
:10255000AA89175600001306E684AA8517550000BD
:102560001305C584EF107058CE871384F7FF89CB0D
:1025700017550000130585A9EF103057A287F5B74E
:10258000175500001305C584EF1030568324090049
:1025900015A02146CE851755000013056585EF105F
:1025A000D0542285CD31174500001305A5F8EF1052
:1025B000D0538440638D2403138484009C44630CB3
:1025C000F400938644FF9848228681471042E30234
:1025D000C4FC8507E5BF9848938644FF2146CE8515
:1025E0001755000013054582EF103050D9B701454B
:1025F000F2406244D2444249B249056182804111AD
:1026000006C61145EF20401911053537B24041018A
:102610008280411106C622C426C24AC0AA84AA8565
:10262000175500001305858D45312A89175600007E
:102630001306C68CAA85175500001305A58CEF104C
:10264000D04ACA871384F7FF89CB175500001305BA
:10265000E59BEF109049A287F5B7175500001305C9
:10266000A58CEF109048804019A821472146CA85C3
:10267000175500001305458DEF10304700406300EB
:102680009402930644FF5C48034834011306840017
:10269000328781481843E30AE6FC8508E5BF014517
:1026A000B24022449244024941018280411106C64F
:1026B0000D45EF20600E1105A93FB2404101828017
:1026C000011106CE22CC26CA4AC84EC62A89AA853E
:1026D0001745000013058574C53EAA8917460000FA
:1026E0001306C673AA85174500001305A573EF10DE
:1026F000D03FCE8701A81755000013052591EF1094
:10270000D03EA2871384F7FFFDF71745000013059D
:10271000A573EF10903D832409001DA02146CE85AE
:102720001745000013050574EF10303C2285EFF0CB
:102730009FB5174500001305E5DFEF10103B8440FF
:10274000638A2405138484009C44630FF4009386F9
:1027500044FF03D7640183D7440122860148104215
:10276000E30EC4FA0508E5BF938644FF03D764016E
:1027700083D744012286014810426304C40005083F
:10278000E5BF2146CE85174500001305256FEF10E4
:10279000D03575B70145F2406244D2444249B2494E
:1027A00005618280411106C61545EF10F07E1105C6
:1027B000013FB24041018280011106CE22CC26CADF
:1027C0004AC84EC62A89AA85174500001305856C9C
:1027D000EFF09FAFAA89174600001306A66BAA85E3
:1027E000174500001305C56BEF103030CE8701A8E8
:1027F0001755000013058581EF10302FA287138431
:10280000F7FFFDF7174500001305456BEF10F02D9E
:10281000832409001DA02146CE851745000013051D
:10282000656BEF10902C2285EFF0FFA51745000097
:10283000130545D0EF10702B844063862405138464
:1028400084009C44630DF400938644FF03D7840105
:10285000228681471042E300C4FC8507E5BF9386CA
:1028600044FF03D784012286814710426304C400D9
:102870008507E5BF2146CE85174500001305C566CF
:10288000EF10B02655BF0145F2406244D2444249A0
:10289000B24905618280411106C61945EF10D06F1B
:1028A0001105193FB240410182801D7186CEA2CC34
:1028B000A6CACAC8AA84974700009387A7BF0A87F9
:1028C00017480000130808C48843CC439047D447F6
:1028D00008C34CC310C754C7C1074107E39607FF9D
:1028E000A6851745000013056545EFF0FF9D2A8971
:1028F0001746000013068644AA85174500001305F5
:102900006544EF10901ECA871384F7FF89CB1745E3
:1029100000001305A56FEF10501DA287F5B71745EE
:1029200000001305A544EF10501C804005A0175768
:1029300000001307E7B7834704012146CA851745FE
:1029400000001305E544EF10501A0040630E940098
:10295000930644FF1C445147E36BF7FC8A07980831
:10296000BA9703A707FBC1BF0145F6406644D644AA
:10297000464925618280411106C62545EF10D06188
:1029800011052537B24041018280411106C622C49B
:1029900026C24AC0AA84AA8517450000130585717E
:1029A000EFF09F922A89174600001306A670AA85A9
:1029B0001745000013058570EF103013CA87138484
:1029C000F7FF89CB1745000013054564EF10F011A0
:1029D000A287F5B7174500001305C570EF10F0107A
:1029E000804001A81745000013054574EF10F00F53
:1029F0000040630994025C4C184C930644FF214646
:102A0000CA851745000013052570EF10100E834787
:102A1000D4FF858BE1DB1745000013056570EF10CF
:102A2000D00CF9B7EF003043AA8517450000130515
:102A3000E570EF10900B0145B240224492440249E8
:102A400041018280411106C62945EF10F05411055D
:102A50002D3FB24041018280411106C622C426C2E8
:102A6000174500001305856FEF1030089387C1816B
:102A7000804311A03104938701829C436375F40263
:102A800004400946974500009385856E2685EF2012
:102A900070236DD15040A685174500001305856D44
:102AA000EF10B004C1BF0145B2402244924441013D
:102AB0008280AA8719A0850785050387070011C7AB
:102AC0008386050099C2E308D7FE3385A74082803C
:102AD000411106C622C426C24AC0B28401448147BD
:102AE000F5A063FFB7002300050005058507030770
:102AF000050093060002E306D7FEA546E303D7FED2
:102B0000A54663EE860063F7B70493062002630AC6
:102B1000D70413172400269708C3050459A817558E
:102B20000000130525AFEF10407C014921A8931741
:102B30002900A6978C43175500001305A5AFEF1089
:102B4000C07A0509E36589FE174500001305859ED7
:102B5000EF10A0792285B2402244924402494101FB
:102B600082800505850713172400269708C30504EE
:102B700019A00505850703070500930620026301D8
:102B8000D70263FFB7009306C005E314D7FE8306A0
:102B9000150013072002E39EE6FC05058507D1BF5B
:102BA000E3FAB7FA230005000505850705A005052A
:102BB000850703070500930600026307D700A546B3
:102BC0006304D700E3E5B7FEE3F6B7F8E3E1B7F255
:102BD00051B7411106C622C426C21755000013057D
:102BE00065A0EF1080709387C181804311A03104EC
:102BF000938701829C436376F402044019469755FB
:102C000000009385E59F2685EF20D00B6DF15040A5
:102C100093856400175500001305059FEF10E06CC5
:102C2000F9B7174500001305E590EF10006C01455A
:102C3000B2402244924441018280011106CE22CC4E
:102C400026CA4AC84EC6AA892E899387C181804365
:102C500011A03104938701829C43637BF4020440FA
:102C60001946975500009385A5992685EF20900574
:102C70006DF14A86CE8513856400EF20B00471F9AA
:102C800093076900BE9483870400E1F7084411A00C
:102C90000145F2406244D2444249B2490561828012
:102CA000814711A085073307F50003070700930646
:102CB00000026307D700A5466304D700E3E4B7FE2C
:102CC000A9CB5D7186C6A2C4A6C2CAC04EDE328937
:102CD000AE842A84BE859537AA8915CD02C402C662
:102CE00002C802CA02CC02CE02D002D202D402D65C
:102CF0003000A6852285E93B0DC12C008299232056
:102D0000A9000145B640264496440649F25961613E
:102D100082807D5582807D55F5B77D55E5B70545A7
:102D20008280011106CE22CC2A8419A00504FD154B
:102D30008307040013070002E38AE7FE2547E387C1
:102D4000E7FE91E50145F240624405618280700032
:102D50002285B93715E53245FDB78507038707009A
:102D6000930600026303D7006DFB23800700A28552
:102D70001755000013058585EF1020577D55E1B7E5
:102D8000A287E9BF011106CE22CC26CA4AC84EC688
:102D900052C456C28307050081CB2A899387C1811B
:102DA0008443814A81492DA0814501451D358DA867
:102DB000A2855685FD392A8A634335014E8AA2854C
:102DC000175500001305C584EF102052D289B104B5
:102DD000938701829C4363FEF40280401946975515
:102DE00000009385E5812285EF20C06D6DF1190407
:102DF0004A85EF20006C2A86A2854A85EF20806CE8
:102E000079F5E39709FA2285EF20A06AAA89A28AB8
:102E100045B763870A004E86D6854A85EF10400A7B
:102E2000F2406244D2444249B249224A924A056180
:102E30008280411106C6EFF0EFDF0145B24041014B
:102E40008280411106C6EF1060630145B240410126
:102E50008280411106C6938781818843EF00D05557
:102E60000145B24041018280011106CE93878181E4
:102E70009C4385461306F100FD5503A5C720EF00CE
:102E8000F02985476309F500FD55938781818843C3
:102E9000EF00F041E1BF0305F100F24005618280DF
:102EA000411106C622C426C24AC02A848347A520EF
:102EB000638D070E83548502914763F197081309C8
:102EC000A51B13060005CA851305A516EF20803241
:102ED00069CD814405A893972400A69713954700D0
:102EE000130505022295850493972400A6979395D0
:102EF000470093850502A29513060005A90529053B
:102F0000EF20A0318D47E3D897FC93972400BE941F
:102F10009397440093840702A294A9041306000522
:102F200081452685EFD0EFC40346A420CA852685B7
:102F3000EF20A02E95472314F40285A89DC0138787
:102F4000F4FF93172700BA9713954700130505025E
:102F50002295130600059305A41B2905EF2080295F
:102F600029C593972400BE941395440013050502C8
:102F700022951306000581452905EFD08FBF035721
:102F8000840293172700BA9713954700130505028B
:102F900022950346A4209305A41B2905EF20E027D2
:102FA0008357840285072314F40283578402231372
:102FB000F402B2402244924402494101828041110C
:102FC00006C622C4A93B1DCD17E7FF1F130787378D
:102FD000B77768209387D7361CC32302070017E40E
:102FE000FF1F130424362285EF20A04C229593075F
:102FF000E0032300F500A30005002285B24022442F
:103000004101828097E7FF1F9387C73337776E733D
:103010001307679698C30967130787062392E7008B
:10302000238307006DBF411106C622C42A841745B9
:1030300000001305E56DEF10402B51371306A41B5C
:10304000AA85174500001305256DEF10002A0145DC
:10305000B240224441018280411106C622C42A8422
:10306000173500001305054DEF102028EFF03FCB7A
:103070008547630FF500A1372286AA851745000012
:1030800013058569EF106026B24022444101828019
:103090002285EFF03FCFC5B7411106C622C426C234
:1030A000AA84EF00A06E35C92A84938781819C434E
:1030B00083A7C720638EA70493053014EF00E07741
:1030C00021E9938781819C4303A5C72019C9EF009B
:1030D000F000938781819C43814503A5C720EF00C1
:1030E000B0089387818184431306000581451385C9
:1030F000A41BEFD00FA823850420A385042023A6BA
:10310000842097050000938505D52285EF00D00522
:10311000B2402244924441018280A68517450000B6
:1031200013054559EF10601CE5B7411106C622C4CE
:1031300026C2938781819C4303C747021367170008
:103140002382E70283A7C72089C7953DEF10E019C6
:1031500019A8EF10201575D98137C5BF93878181D4
:103160009C43054798D3EFF03FD02A84ED47E3070F
:10317000F5FE9387818184439C5005476384E7086B
:103180000947638BE70865D0A547630DF41E9307D5
:10319000F007630BF41EA1476308F41EB5476308EC
:1031A000F428A9476305F42803C7A4209307F00473
:1031B00063F4E7002385042003C6B42083C7A4205A
:1031C000636AF62CA697238D871A83C74402858BE2
:1031D000639B07329387818198438347A7208507A4
:1031E00093F7F70F2305F7208346B7208506A3053D
:1031F000D7209306F004E3F8F6F623050720A3058D
:10320000072095B79307B0056305F50023A00402D6
:103210009DBF89479CD081BF23A00402930710045F
:103220006306F50493072004630AF5089307400436
:103230006307F50E93073004E317F5F483C7B42052
:1032400003C7A420E3F1E7F2A6978385A71B1745E0
:1032500000001305E54AEF104009938781819843E8
:103260008347B7208507A305F720F5BD83D7640200
:1032700081E723930402C5BDFD17C207C1832393D1
:10328000F4021384A41B13972700BA9713974700DF
:1032900013070702B385E40013060005A90522857C
:1032A000EF10B0772285EF20C0201375F50F23852E
:1032B000A420A385A4202685BD3375B503D7640259
:1032C00083D784029386F7FF6347D704E38D07E82B
:1032D000FD172393F4021384A41B83D7640213976E
:1032E00027003E979317470093870702B385F400A2
:1032F00013060005A9052285EF1030722285EF2004
:10330000401B1375F50F2385A420A385A4202685D3
:10331000EFF07FD189BD05072393E4026DBF83C71A
:10332000B420E38207E4174500001305253DEF00B4
:10333000D07B9387818198438347B720FD17A305EE
:10334000F72015B5174500001305453BEF00F07950
:1033500005049387818188438347B520E344F4FEC5
:103360001305A51BEFF05FCF938781818043130581
:10337000A41BEF2000141375F50F2305A420A3054B
:10338000A420D5B30144F1B783C7B420E38D07DC93
:1033900003C6A4207D161376F60F2385C420FD17DF
:1033A00093F7F70FA385F42063E1C70217450000E8
:1033B0001305C535EF007073938781819C4303C764
:1033C000A720BA97238D071A79BB1385071B26956B
:1033D0009385171BA6951D8EA9052905EF00F029D9
:1033E000138481810C4083C7A520AE97238D071AD3
:1033F00083C7B5209387071BBE95A9051745000015
:1034000013054530EF00706E1C4003C4B72001A8BF
:10341000174500001305852EEF00306D05049387D6
:1034200081819C4383C7A720E3D487FE2DBB2685DB
:10343000EFF01FA7EFF0BF8E85476305F502EFF0B1
:103440001FB8EF00906A93878181804313060005BF
:1034500081451305A41BEFC0DFF123050420A3055C
:10346000042011B3938781819C4383C74702858BD6
:1034700099EB9387818188438345A5201305A51B7C
:10348000EFF03F8A6DBF173500001305A50AEF0066
:10349000D065C5B71305161B26959305061BA69583
:1034A0003386C740A9052905EF00301D9387818128
:1034B0009C4383C6B7203387D700230D871A03C7E1
:1034C0004702058B0DE7938781819C4303C4B72096
:1034D000938781819C4383C7A720E35DF4CE174582
:1034E00000001305A521EF0050600504D5B79386B1
:1034F000061BB6979385A700174500001305C5FA6C
:10350000EF00B05EC9B7A285174500001305451F3F
:10351000EF00B05DC1B123AEA18023A0B182828053
:1035200023A2A18223A4B1828280411106C622C4B3
:103530009755000093858583174500001305456D59
:10354000D93F9755000093856582175500001305F4
:10355000E581F937930500210545EF10C01423AC30
:10356000A18021C5A9472D47930600400146970534
:1035700000009385C5BB1745000013052517EF1004
:1035800080742A84814601469745000093858516FC
:10359000938781818843CD210DC02285EF10901142
:1035A0000145B240224441018280174500001305C5
:1035B0006512EF0090537D55EDB70145DDB7AA8840
:1035C00011061378C6FF130508F881477D47636C21
:1035D000F700139727002A9737C6ADDE1306F6EEDD
:1035E00010C38507E5B72322D8F82324B8FA23208F
:1035F00018F9A167938707882324F8F8828037F7A2
:1036000000E01C43B7060080D58F1CC38280B7F64C
:1036100000E09C42370700801347F7FFF98F9CC2F8
:103620008280216513050580731505308280731033
:1036300005308280411106C6938741839C4399E3FC
:1036400023A6A18223A8B182854723AAF182453F00
:10365000B2404101828093878183884382804111F7
:1036600006C6138781831C4385071CC3EF102065A2
:103670003C45FD173CC591C7EF10D029B240410130
:1036800082807C413CC5EF10A06AFDB76342050211
:103690009307803E3347F5023307F7023365F5029F
:1036A0003305F5021305753E3345F5023A958280E0
:1036B0007D5582800145828001458280014582805E
:1036C00001458280411106C622C41744000013043C
:1036D000246A974700009387676A6376F4001C406A
:1036E00082971104FDB7B24022444101828041110A
:1036F00006C622C41744000013044468974700001C
:10370000938747686376F4001C4082971104FDB7E5
:10371000B240224441018280411106C6C93FEFD028
:10372000AFD2B24041018280411106C6D147154750
:1037300093060020014697050000938525FE174556
:1037400000001305E5FDEF100058EF10A076B24021
:1037500041018280411106C6E935EFE0EFCEEF006E
:103760007040EF109027EF10401D7D3FEF10702844
:10377000C924EF1000200145B2404101828041116F
:1037800006C6C93F0145B24041018280011106CE03
:1037900022CC26CA4AC84EC6AA89EF10405219C187
:1037A000EF1080342545EF00307F2A894041930790
:1037B000490063828702930444FF2146CE85268513
:1037C000EF00C07219C10040DDB7EF10404F11C9C2
:1037D000EF10803339A0EF10804E01CDEF10C032D2
:1037E00081442685F2406244D2444249B24905618F
:1037F00082808144FDB715CD411106C622C426C280
:103800004AC03289AE842A842E8549370DE5268642
:10381000A5452285EF00507B231C2401230E0400C4
:10382000231D04000145B240224492440249410153
:1038300082807D5582807D55FDB7411106C622C428
:1038400026C24AC02A842E8983578501C18B85EB05
:103850001C5585C78297AA8401E98357840193E7A1
:103860000701231CF40029A82A86A2851745000019
:10387000130585EBEF00702789A08144F9BF8144CF
:1038800083578401A18B89C78357A401A18BA9E722
:103890005C549DCBCA8522858297AA8481C4E9574E
:1038A000639DF4008357A40193E78700231DF40070
:1038B0008347C4018507230EF4002685B2402244C5
:1038C000924402494101828085679387F7F03379FA
:1038D000F900231D2401D9B7E554C5B78347C501B5
:1038E00095CBFD1793F7F70F230EF50095E74111E0
:1038F00006C622C42A841C5999C7829711C5E95764
:103900006316F50011A00145231D0400B2402244B6
:10391000410182807D55828001458280411106C629
:103920008347C50199C75C5989CB8297B240410151
:1039300082807D55C9210145D5BF69556D29014555
:10394000F5B7411106C68347C50199C71C5D89CBF0
:103950008297B240410182807D5571290145D5BFD2
:10396000695551290145F5B70CD1014582809387EE
:10397000418998436308F708411106C622C426C24C
:103980004AC03DA02685EF00507A8547630BF504B9
:10399000EF1080174A85EFF09FC94848EF00505359
:1039A0002685EF00B0749387418998436306F70436
:1039B000EFF03FC72A89938741899843630CF70248
:1039C00080439304C4FE18405C405CC3184098C315
:1039D00040C000C0EF1040117C50CDD726858297A3
:1039E00055B72685EF00B065EF1000124A85EFF05D
:1039F0001FC419A0EFF0BFC3B24022449244024951
:103A0000410182808280411106C622C40DA00504B6
:103A10008D4763ED87001317240097E7FF1F9387F7
:103A2000A7A2BA979C43E5D78297D5B789370144B7
:103A3000C5B7411106C622C417E4FF1F1304C4987A
:103A4000930800023D489307002017E7FF1F130764
:103A5000A7A0814617060000130626FB9745000025
:103A6000938505D02285EF1020202285EF10804419
:103A7000B240224441018280411106C622C426C2BE
:103A80004AC02A843289B6842E868945EF00D053F5
:103A9000930744011CCC5CC8231E2401A30494009A
:103AA0000145B24022449244024941018280797129
:103AB00006D622D426D24AD04ECE52CC2A842EC646
:103AC000938701889C4391C38297EFF09FB5AA89A1
:103AD0008357C401A1EFB247A5C3EF10401EAA84CB
:103AE0002328050213094401034A9400EF10602AB9
:103AF00063080A0485476302FA06B2476341F00A85
:103B00004E85EFF0DFB2EF00106A885801E9938725
:103B1000C1879C43C5C3228582970145B250225478
:103B200092540259F249624A45618280FD17231E70
:103B3000F400EFF0DFAFE1BFEFF07FAF7955F9BFF1
:103B400093874401032749001CC30327490098CCED
:103B50002322F90023AA24014DB75C486302F9022D
:103B600083C6540303C7170263E4E6009C43FDB712
:103B700013874401D44398C2D44394CCD8C3DCC83F
:103B8000E31DF9F693874401032749001CC303276B
:103B9000490098CC2322F90023AA2401B9BF138934
:103BA000C404700081454A85EF10C0524A85EF1069
:103BB000603EB9B701459DB7411106C622C426C271
:103BC0002A84938781879C4391C38297EFF07FA5D6
:103BD000AA849307440148486380A7023115EF1077
:103BE000602705442685EFF09FA411EC0145B24003
:103BF00022449244410182808357C4018507231ED9
:103C0000F4000144C5B7EF00105ACDB7411106C604
:103C100022C4EFF01FA12A84138741848347070041
:103C2000850793F7F70F2300F7009387C1839C4321
:103C300091C382972285EFF09F9FB24022444101B9
:103C40008280411106C622C4EFF0BF9D2A841387EB
:103C5000418483470700FD1793F7F70F2300F70010
:103C6000938701849C4391C382972285EFF03F9C08
:103C7000B2402244410182809387418403C50700FA
:103C8000828041119378080463820804974E0000F3
:103C9000938E8ED293780801638408001378E8FF2E
:103CA0009378180063890802130F000393782800A3
:103CB000638B08026344060293784800639A080401
:103CC0009378880063990804814F39A8974E0000C3
:103CD000938ECED8C1B7130F0002C9BF3306C040C0
:103CE000930FD00211A0814F25E293060003230019
:103CF000D100854863CC1705BE86158F1376180151
:103D00002DE663850F006353E0007D173A8699A086
:103D1000930FB002D1BF930F0002F9B71373F600EF
:103D200011827693030E03001303010146932308C7
:103D3000C3FF850861D22943E39266FE294E33739F
:103D4000C6033356C603F1BF8148EDB7C68675B7C3
:103D500005053A861307F6FF6359C000E37AB5FEFE
:103D6000130600022300C500E5B763880F006374E3
:103D7000B5002300F5017D170505137808016305DB
:103D8000080005A0050532871306F7FF6357E0001A
:103D9000E37AB5FE2300E501F5B7328719A00505E2
:103DA000B2861386F6FF63DBD800E37AB5FE93068E
:103DB00000032300D500E5B70505B6889386F8FF14
:103DC000635E100181CFE379B5FE100836960306D5
:103DD00006FF2300C500CDB705053E879307F7FF13
:103DE0006359E000E37AB5FE130700022300E50003
:103DF000E5B741018280411106C622C42A84EFF052
:103E0000BFE719C523A48184B240224441018280C6
:103E1000EF00F06A19C100D9C5BF23A48184EDB7B2
:103E200013F7F50F8D4763FEC70293773500B9E3AB
:103E300093178700D98F139707015D8FAA8739A041
:103E400098C3D8C398C7D8C74116C107BD46E3E990
:103E5000C6FE21A098C3711691078D46E3ECC6FEFD
:103E600011A0AA871307F6FF01CA2380B7008507B0
:103E70003A86CDBFAA87FDB7828063F4A502B387D7
:103E8000C500637CF5023307C50001A8FD177D1747
:103E9000038607002300C70036869306F6FF7DF6EB
:103EA0008280AA871307F6FF19CA8386050023803C
:103EB000D700850585073A86F5B7AA87E5B78280DA
:103EC00019CE2A87138815009307170083860500EB
:103ED0002300D70089CA7D163E87C28565F6828099
:103EE0002380070085077D1665FE8280814715C205
:103EF000030705009377F70F1388150083C60500A5
:103F0000958FE207E18791E7050501C77D16C28518
:103F1000F9BF3E858280AA870387070019C38507FA
:103F2000E5BF3385A7408280397106DE22DC26DAC0
:103F30004AD84ED652D456D25AD05ECE62CC2A8AB5
:103F4000AE8A328436C6B309B50063F5A900934A38
:103F5000F5FFFD59528919A00509050483070400DE
:103F6000638B0730130750026387E700E37639FF5E
:103F70002300F900D5B7814421A093E404013A84D9
:103F800013071400830714009306D002E387D7FEBB
:103F90009306B0026381D702930600026380D702C2
:103FA00093063002638FD70093060003639ED70009
:103FB00093E41400E9B793E44400D1B793E4840098
:103FC0007DBF93E4040265BF938607FD2546637DAC
:103FD000D6049306A002638BD7047D5B830607009B
:103FE0009307E0026383F606FD5B830707009306F1
:103FF0008006638BD70A9306C0066387D70A3A8484
:1040000001467DA093162B00369B93171B000507D6
:10401000338BC700130B0BFD03060700930606FD49
:10402000A547E3F1D7FE5DBF014BFDB713072400A1
:10403000B2479386470036C603AB0700E3500BFA3E
:10404000330B604193E4040151BF930617008307CB
:104050001700938507FD2546637EB6021306A0026E
:10406000638CC7023687814B49B793972B00BE9B61
:1040700093971B008506BA97938B07FD038706006D
:10408000130607FDA547E3F2C7FE3687E3DF0BF40F
:10409000814BA1BF814BDDB70907B247938647002B
:1040A00036C683AB0700DDB713F6F70F130417000E
:1040B000830704009387B7FD93F6F70F13073005C6
:1040C0006369D71293972600173700001307C76953
:1040D000BA979C43BA978287C18891CCB24713871D
:1040E00047003AC683870700637439012300F9004B
:1040F000050929A805097D1BE35260FFE37C39FF10
:10410000930700022300F900F5B705097D1BE3566C
:1041100060E5E37C39FF930700022300F900F5B75F
:10412000B247138747003AC603AC0700630E0C0082
:104130006285EFF05FDE6355700163D3AB005E858F
:10414000C18891C8814705A8174C0000130C8C90BA
:10415000C5B705093E8B9307FBFF63596501E37AF9
:1041600039FF130700022300E900E5B73E8BD9BFF2
:104170000509050C850763DBA700E37B39FF03070F
:104180000C002300E900EDB705093E8B9307FBFF08
:10419000E35565DDE37A39FF130700022300E900E8
:1041A000E5B7FD576301FB023246930746003EC662
:1041B0002688DE875A87C1461042CE854A85EFF0B1
:1041C0005FAC2A8959BB93E41400214BF1BF63769D
:1041D0003901930750022300F9000509BDBBA14630
:1041E00081A093E40404C14625A893E42400A946D1
:1041F00005A863763901930750022300F9001307DD
:1042000019008307040099C763743701A300F900FC
:104210000909A1B37D143A8989B3A94611A0C14601
:104220009307C0066304F602930780066306F6024E
:10423000B247138747003AC690432688DE875A87DD
:10424000CE854A85EFF0FFA32A8901BBB2471387C9
:1042500047003AC69043D5B7B247138747003AC6DE
:104260009C4313960701418213F7240079D71396D4
:1042700007014186D9B763860A00637239032300B8
:10428000090033054941F2506254D2544259B2599F
:10429000225A925A025BF24B624C21618280A38FB8
:1042A00009FEC5B79387C18488438280411106C641
:1042B00022C426C29387C1848443EFF02FCD19CD49
:1042C0002A849387C184884319C1EFF02FE19305B5
:1042D00030042285EFF06FD623A681842685B24074
:1042E00022449244410182808280397106CE22CCE0
:1042F0002ED232D436D63AD83EDA42DC46DE5410DC
:1043000036C62A869305F00717D5FF1F1305C53457
:10431000EFF09FC19307F00763F4A7001305F007C0
:104320009387C1849C438DCB03D4A70113670404F6
:10433000239DE700AA8617D6FF1F1306E6318145A5
:104340003E85EFF00FE09387C1849C43239D870057
:10435000F24062442161828017D5FF1F1305C52FEB
:104360006137FDB7411106C6173500001305056614
:10437000AD3F1735000013052566853F1737000050
:104380001307C7678D4605468D4517350000130591
:10439000A567A13F1735000013050569B937B2407D
:1043A0004101828015C59377F50F85E7C167938733
:1043B00007F0E98F85EBB707FF00E98FA1E3618183
:1043C000973700009387474F3E95034505006505E5
:1043D0008280173700001307274EBA9703C50700DE
:1043E0000505828021851375F50F973700009387A7
:1043F000A74C3E9503450500250582804185137530
:10440000F50F973700009387274B3E95034505002E
:1044100045058280938741859443584136976306CA
:10442000E5028357270095E3938701859C43638EBC
:10443000E700938781859C43638CE7025C435CC102
:104440005C43B6973307D54098C71C45B6976300C1
:10445000F50203D7270001EF138781851843630C0A
:10446000A7005841D8C358413697958F1CC7828002
:1044700023ACA184E1B723ACF184E5B7411106C6B2
:10448000938701868C43173500001305655EEFF0B6
:10449000DFE59387C1868C43173500001305855EE1
:1044A000EFF0BFE49387C1858C43173500001305F7
:1044B000A55EEFF09FE3B24041018280411106C644
:1044C00022C413F7C5FFE14663F9E6009307350000
:1044D000F19B930687FE63FEF6002E86AA851735AC
:1044E000000013056565EFF05FE0B2402244410132
:1044F00082801D8F930687FE23A0D1861384418579
:104500001CC08966938606EA2390D7005117D8C34A
:1045100023A4070023910700BA9723A8F1842390CE
:10452000D70085462391D700D8C398C78146054652
:10453000973500009385C55F17D5FF1F1305C51973
:10454000EFF08FD31C4023ACF18445B76309051409
:10455000411106C622C426C20D059374C5FF938778
:1045600001869C4363EF9712AD4763E39700B14424
:10457000FD5517D5FF1F13052516EFF04FD3938771
:1045800081858843938741859043B307C540B1A097
:1045900085472311F400B307C440B387F540138760
:1045A000C1861443B6971CC31387C185184363742F
:1045B000F70A23AEF18445A0DC43B29723ACF18423
:1045C000938781859C4303D7270049CF13870185B3
:1045D0001843E393E7FE79A05C40138701861843F4
:1045E000B306974063F1D70A3304F60083562400DC
:1045F000E5F64C40B386F540D116E3EF96FC138800
:104600008401E3E706F9B385F400B105B306B6000B
:104610000968130808EA239006012391060003287D
:10462000440023A206019CC64CC085472311F40018
:10463000DC4231076384E700B2978CC71387C186D9
:104640001C43A697B1071CC31387C1851843637425
:10465000F70023AEF1848967938707EA2310F400FB
:10466000E30085F617D5FF1F13050507EFF0CFD43C
:10467000938781869C4389C7A6851305C4008297CA
:104680001305C40001A817D5FF1F1305E504EFF0BB
:10469000AFD20145B240224492444101828001459B
:1046A00082800145C5BF411106C622C426C2B3049B
:1046B000B5022685EFF09FE92A8409C52686814543
:1046C000EFF00FF62285B2402244924441018280ED
:1046D00079C1411106C622C426C22A849387418625
:1046E0009C4391C38297938741859C436367F40001
:1046F000938701859C436367F400B240224492444F
:1047000041018280930444FFFD5517D5FF1F130517
:10471000A5FCEFF0CFB9835764FF81CB035744FF6B
:104720008967938707EA6303F702173500001305CB
:10473000653BEFF09FBB835644FF035664FFA6859D
:10474000173500001305C53BEFF03FBA231B04FEED
:104750008967938707EA231AF4FE938781859C4330
:1047600063F4F40023AC9184938741859C43B38721
:10477000F440832684FF1387C186958F1443B69730
:104780001CC32685EFF01FC917D5FF1F1305C5F4FD
:10479000EFF08FC29DB7828081471D476344F702C7
:1047A0009396470017C7FF1F1307C7933697184301
:1047B0006304A7008507D5B717C5FF1F13058592AA
:1047C0003695828001458280011106CE22CC26CA10
:1047D0004AC84EC652C42A89AE89328A2E856D3F98
:1047E000AA841926DC40138444006304F4009C432B
:1047F000DDBF192E93E909F8230439012146D2853A
:104800004A85EFF0EFEB938701879C4399C34A8574
:104810008297EFE01FE19307C900D8405CC3D840FE
:104820002326E900DCC023288900EFE05FE0F240A6
:104830006244D2444249B249224A05618280411110
:1048400006C622C42A84938741879C4391C38297DA
:1048500023040400EFE0FFDC9307C400544418482D
:10486000D8C2544414C31CC85CC4EFE05FDCB2403F
:10487000224441018280011106CE22CC26CA4AC8B8
:104880004EC6AA892E89EFF03FF1AA844845EFF081
:10489000FFCB39C92A84D0448145EFF06FD8230477
:1048A0003401A30404002146CA852285EFF04FE1BC
:1048B000938701879C4399C322858297EFE07FD637
:1048C000138744009307C400D440DCC2D44054C4CE
:1048D000DCC018C8EFE0BFD52285F2406244D24464
:1048E0004249B249056182800144FDB7411106C6C3
:1048F00022C42A84938741879C4391C382972304CF
:104900000400EFE01FD29307C40054441848D8C2F3
:10491000544414C31CC85CC4EFE07FD12285EFF07F
:104920003FDBB2402244410182808307850063C49B
:104930000700014582800545828023980188014750
:10494000BD4763CDE7009316370097D7FF1F9387C6
:10495000A7DAB697DCC39CC30507DDB72382F188CD
:1049600023A4018823AE018893874189DCC39CC3BB
:104970008280411106C69387C1898843EFF09FA2C8
:104980007D159317350017D5FF1F1305E5D63E9506
:1049900008419307C5FE23A4F1882105EFB05F828B
:1049A000B24041018280411106C622C426C24AC0DB
:1049B000EFE03FC72A849387018983970700B1EF0F
:1049C0009387C1898843EFF0FF9D7D15131735004C
:1049D00097D7FF1F938747D2BA9703A9070093057C
:1049E000C9FE9387818884436389B4022382A188A6
:1049F00023A4B1889387C1889C4399C32685829755
:104A00009387418483C7070093F7F70F85C3930506
:104A100089001385C401EFE0FFC12285EFE03FC1AB
:104A2000B2402244924402494101828093058900A8
:104A30001385C401EFB08FFA2285EFE05FBFCDB7D9
:104A4000411106C622C42A84EFE0BFBD8307440398
:104A5000C19B93E71700230AF4028347540313977B
:104A6000370097D7FF1F938727C9BA9713074401C9
:104A7000D44398C2D44314CCD8C35CC8145C138705
:104A8000C1891C43D58F1CC3EFE07FBAB2402244DA
:104A900041018280411106C622C42A84EFE07FB81A
:104AA000930744015448184CD8C2544814C31CCC32
:104AB0005CC8834754031397370097D7FF1F93872A
:104AC000A7C3BA9798436388E700EFE05FB6B240A8
:104AD0002244410182801C5C13C7F7FF9386C18981
:104AE0009C42F98F9CC2D5B7411106C6EFE07FB357
:104AF000138701898357070085072310F700EFE02C
:104B00001FB3B24041018280411106C6EFE07FB180
:104B10001387018983570700FD17C207C187231038
:104B2000F7006357F000EFE09FB0B2404101828090
:104B300023980188EFE0BFAF938781889C43F5D726
:104B4000EFF07FE6DDB7411106C622C426C2938787
:104B500081888043EFE0FFACAA842285EFF09FF3C9
:104B60009147230AF4021305C404DD262285EFF0E1
:104B7000DFDB85476305F50213074401938741890D
:104B80009443D8C254C898C31CCC2685EFE03FAAF2
:104B9000EFF07FE1B24022449244410182803C5CCC
:104BA000E1FF2285EFF0BFC9CDB7411106C622C48F
:104BB00026C24AC02A844289C684930545010CCD89
:104BC0004CC910D154D118D55CD53E86930530021E
:104BD0003A85EFF0EFA410545C54F11797060000EB
:104BE0009386A6F63E964C500850EFE05F9D48CC69
:104BF000230B2403A30A2403232C040264C024C42B
:104C000023280402230A0402232C0406232E04066C
:104C100081470147A286170600001306A602A28557
:104C20001305C404FD249387018A9C4399C32285FC
:104C300082970145B2402244924402494101828058
:104C4000411106C6795718D9130745015049144D2B
:104C500054C2504990C218CD58C9EFF07FDEEFF032
:104C60009FD4B24041018280797106D622D426D2E7
:104C70004AD04ECE52CC56CA5AC85EC6AA842E849A
:104C80003289B6893A8ABE8A428BC68B2E86854582
:104C9000EFF09FB3DE885A88D6875287CE864A8641
:104CA000A2852685EFF07FF0B2502254925402592B
:104CB000F249624AD24A424BB24B456182809387A5
:104CC000818888438280011106CE22CC26CA4AC838
:104CD0004EC652C456C25AC0AA84AE89328A368998
:104CE000BA8A3E8BAA850545EFF0FFB821C12A8418
:104CF0004A85EFF0BF8515C5DA885688CA872A87A6
:104D0000D2864E86A6852285EFF03FEA2285F240C4
:104D10006244D2444249B249224A924A024B056156
:104D200082802285EFF09FBC0144CDB70144F9BFDA
:104D3000411106C6EFE0FF8E938781889C4303C72D
:104D400047033D8B85466316D700D44B984F639835
:104D5000E600EFE0DF8D0145B2404101828013861D
:104D60004701D8C2D44B14C390CFD0CB03C757034D
:104D70000E0797D6FF1F938626983697544390C206
:104D8000544394CF50C3D8CBEFE07F8AEFF0BFC13C
:104D9000D9B783474503BD8B05476396E7044111A7
:104DA00006C622C426C22A84EFE0BF87AA848307EE
:104DB0004403C19B93E72700230AF4022285EFF006
:104DC0007FCD1305C404452C2685EFE05F869387CD
:104DD000818A9C4399CB228582970145B240224427
:104DE0009244410182807D5582800145C5BF0111F9
:104DF00006CE22CC26CA4AC82AC6EFE09F822A895C
:104E00009387818880432285EFF0BFF89304C40420
:104E10007000814526857D2C2685AD2A4A85EFE0E8
:104E20001F81EFF05FB81858F9576309F700014583
:104E3000F2406244D2444249056182802328040240
:104E4000FDB7411106C6EFE07F84EFF05FFAB24094
:104E50004101828083474503BD8B09476398E7047E
:104E6000411106C622C426C22A84EFE08FFBAA8421
:104E7000930744015448184CD8C2544814C31CCC5E
:104E80005CC81305C404C52A2685EFE04FFA2285C5
:104E9000EFF01FBB9387418A9C4399CB2285829771
:104EA0000145B24022449244410182807D55828076
:104EB0000145C5BF411106C683466503A30AD50255
:104EC00005473317D70018DD0947230AE502EFF03D
:104ED0007FF8EFF0DFDE19C1EFF0FFAC0145B24023
:104EE000410182801377E70FA304E5004CCD10D178
:104EF0002324050254D101476353E00082809307C5
:104F000027008E07AA979386470094C7D4C3050746
:104F1000E5B7011106CE22CC26CA4AC84EC652C4F5
:104F20002A84B2843689BA893E8A2E86A945EFF052
:104F3000BF895287CE864A86A6852285EFF09FFAE2
:104F4000F2406244D2444249B249224A0561828019
:104F5000411106C622C42A84EFE0AFEC0147635C2E
:104F6000E000EFE0CFEC2285EFF07F8D0145B2400D
:104F7000224441018280930727008E07A2979386DF
:104F80004700CC439047D0C1CC430CC294C7D4C394
:104F90000507F1B7011106CE22CC2A84EFE06FE8B5
:104FA00001476356E00683479400F99BA304F4008D
:104FB000EFE0EFE79387C1879C4399C322858297EF
:104FC000EFE06FE95C503E9508D4EFE08FE5938702
:104FD000818B3EC68146ADC21387C18A1C438507BB
:104FE0001CC3B247130744019443D8C2944354C826
:104FF00098C31CCC8347940093E71700A304F400E4
:10500000EFE0EFE20145F2406244056182809307E0
:1050100027008E07A29793864700CC439047D0C1C4
:10502000CC430CC294C7D4C30507A5BF93972600F1
:105030001808BA9723AEC7FE939726001808BA97A8
:1050400003A6C7FF939736001387818B3E9758437B
:105050006301E6021042D107B307F6409C5718548B
:10506000E386E7FC998F370700801347E7FFE36F7C
:10507000F7FA85068DB783479500858BB1CB411133
:1050800006C622C42A84938781879C4391C3829752
:10509000EFE02FD90147635EE000EFE04FD983478F
:1050A0009400F99BA304F4000145B240224441015D
:1050B0008280930727008E07A29793864700CC43F0
:1050C0009047D0C1CC430CC294C7D4C30507E1B705
:1050D0007D55828085476385F50263DFB700894788
:1050E0006384F5028D47639FF5008347950093E73E
:1050F0002700A304F50039A091E51C425CD119A05A
:105100005C511CC20145828083479500F59BA30436
:10511000F500CDBF011106CE22CC26CA4AC84EC624
:10512000EFE06FD3AA89EFE0CFCFAA84B1A813072D
:10513000C4FE938726008E073E971107A29783A58A
:1051400007FF03A647FFD0C183A507FF0CC223AA10
:10515000E7FE23A8E7FE8506E35BD0FC1C44484439
:105160008297EFE04FCFAA899387418B9C4399C3E5
:105170004A858297834754FF93F637000D47638D26
:10518000E602F99BA30AF4FE9387818B8043630CAC
:10519000F4021309C4FE48483385A940B7070080CC
:1051A00093C7E7FF63E1A7029387018B9C4399C3F1
:1051B0004A85829781464DB7F99BA30AF4FE4A853A
:1051C000EFF05FDDD1B72685EFE06FC6F2406244B5
:1051D000D2444249B24905618280014711C38280AD
:1051E000931637009387818BB697DCC39CC3050762
:1051F000F5B7828001476314E60001458280B3075A
:10520000E5000507B386E50083C7070083C6F6FF00
:10521000E383D7FE3385D7408280B3C7A5008D8B4B
:105220003307C50081E78D4763EEC700AA87637027
:10523000E50A83C6050085078505A38FD7FEE3EA47
:10524000E7FE828093763500AA8791CA83C605005F
:1052500085078505A38FD7FE93F63700FDB79376B4
:10526000C7FF138606FE63F0C70683A3050083A26B
:10527000450083AF850003AFC50083AE050103AED3
:10528000450103A3850183A8C5019385450223A099
:10529000770003A8C5FF23A2570023A4F70123A684
:1052A000E70123A8D70123AAC70123AC670023AED7
:1052B00017019387470223AE07FF75B79041910707
:1052C000910523AEC7FEE3EBD7FEE3E4E7F6828069
:1052D000CDC183A7C5FF411122C406C626C21384CF
:1052E000C5FF63D307003E94AA842D299387018CC0
:1052F0009C4399EB2322040023A0818C2244B240DA
:1053000026859244410105A1637EF40014403307D1
:10531000D4006396E7009843DC43369718C05CC01E
:10532000E1BFBA87D84319C3E37DE4FE94433386D3
:10533000D700631F86001040B29694C33386D7000F
:10534000E31EC7FA10435843B29694C3D8C37DB73F
:105350006375C400B1479CC055B71040B306C40084
:105360006316D70014435843B29614C058C0C0C344
:1053700071B78280011126CA93843500F19806CE58
:1053800022CC4AC84EC6A104B14763F1F404B1442B
:1053900063E0B4042A8979269387018C98433A8480
:1053A00031E09387418C9C4391E781454A85C92828
:1053B00023A2A18CA6854A85E120FD5963173507F4
:1053C000B1472320F9004A85B92E29A0E3D204FC75
:1053D000B1471CC10145F2406244D2444249B2493E
:1053E000056182801C40858F63CE0702AD4663F65F
:1053F000F6001CC03E9404C031A05C4063128702DA
:1054000023A0F18C4A8505261305B40093074400B8
:1054100061993307F54061D33A94898F1CC065BF09
:105420005CC3CDB722874040A5BF130435007198F7
:10543000E30385FCB305A4404A859920E31D35FBB1
:1054400041B739713EDA2ED232D436D63AD842DC60
:1054500046DE9387C18022CC804326CA06CEAA842A
:1054600009C41C4C99E3228591220C4454102686D1
:10547000228536C60526F2406244D24421618280EC
:10548000411122C42A842E8597C7FF1F23A6072E09
:1054900006C6EFB02F88FD576319F50097C7FF1FA9
:1054A0009387872D9C4391C31CC0B2402244410185
:1054B0008280AA87850703C7F7FF6DFF3385A74062
:1054C0007D15828005C67D160147B307E500B386CA
:1054D000E50083C7070083C606006396D700630410
:1054E000C7000507FDF33385D740828001458280E0
:1054F000411122C406C62A842316B5002317C5000D
:10550000232005002322050023240500232205066D
:1055100023280500232A0500232C05002146814568
:105520001305C505EFA0FFE4971700009387478C8C
:105530005CD0971700009387A78E1CD497170000A4
:105540009387E7925CD4971700009387A79500D0C4
:105550001CD8B240224441018280971500009385F7
:1055600025CC99AA411126C2130680069384F5FF23
:10557000B384C4024AC02E8922C406C69385440758
:10558000EFF05FDF2A8401CD2320050023222501CF
:10559000310508C4138684068145EFA09FDD22856E
:1055A000B240224492440249410182801C4DA5E749
:1055B000411106C622C497070000938747FA1CD5FD
:1055C000938701819C432324050423260504232873
:1055D00005046314F50085471CCD2A84352848C08E
:1055E00022851D2808C42285052848C44840014654
:1055F0009145EFF0FFEF08440546A545EFF05FEF5A
:1056000048440946C945EFF0BFEE85471CCCB2407F
:10561000224441018280828041119387018126C208
:1056200084434AC006C69C4C22C42A8981E7268549
:10563000EFF0DFF7938484048044DC40FD1763D6E9
:1056400007009C40B9CF8440C5BF0317C40039E7A9
:10565000C1778507232204062320040023220400A7
:10566000232404005CC423280400232A0400232CE0
:105670000400214681451305C405EFA09FCF232ACE
:105680000402232C04022324040423260404228578
:10569000B2402244924402494101828013048406AC
:1056A00071BF91454A85EFF0FFEB88C049FDB147D6
:1056B0002320F9000144E1BF797122D44AD052CCB1
:1056C00056CA5AC85EC606D626D24ECE2A8AAE8A98
:1056D000130485040149054BFD5B09ECB2502254CB
:1056E0004A8592540259F249624AD24A424BB24B1D
:1056F00045618280044483294400FD1963D4090074
:105700000040E1BF83D7C400637BFB008397E400C4
:1057100063877701A6855285829A3369A9009384AD
:105720008406E1BF828082801C46FD171CC663D9B7
:105730000700184E63C5E700A9476393F500A5A7C6
:105740001C422E851387170018C22380B700828061
:10575000011122CC26CA4AC84EC652C406CE2A8996
:10576000AE893284B304D6007D5A63149400014597
:1057700011A8834504004E864A85EFF0FFFA050420
:10578000E31545FFF2406244D2444249B249224AFD
:1057900005618280357122CD26CB4AC94EC706CF1E
:1057A00052C556C35AC1DEDEE2DCE6DAAA89AE840F
:1057B0003289368409C51C4D99E3EFF03FDF972706
:1057C00000009387273D639DF40C83A4490083D791
:1057D000C400A18BE5CB9C48F5C793070002A30446
:1057E000F1029307000302D22305F10222C6930BB4
:1057F0005002972A0000938AEA3D054C294B4A84BF
:105800008347040099C36391770FB30C2441638EDF
:105810000C00E6864A86A6854E85EFF07FF3FD579D
:105820006308F51E9256E69636D2834704006381DC
:10583000071EFD571309140002C802CE3ECA02CC4F
:10584000A309010482D48345090015465685EF005B
:10585000303613041900C24751E913F7070109C78D
:1058600013070002A309E10413F7870009C7130710
:10587000B002A309E104834609001307A002638F65
:10588000E606F2474A84814625460347040093050D
:105890001400130707FD6378E60AADCA3ECEBDA02B
:1058A00097270000938707316395F40083A489004C
:1058B00039BF972700009387E72BE39AF4F083A47E
:1058C000C90031B7A6854E85D92D01D97D55FA403D
:1058D0006A44DA444A49BA492A4A9A4A0A4BF65B68
:1058E000665CD65C0D618280050419BF33055541A5
:1058F0003315AC00C98F3EC82289B1B73247930631
:105900004700184336C6634907023ACE03470400EE
:105910009307E002631FF704034714009307A002F4
:10592000631BF702B2470904138747009C433AC63A
:1059300063C107023ECA35A83307E04093E727005A
:105940003ACE3EC8E1B7B387670385462E84BA973F
:105950002DBFFD57C5B7050402CA814681472546BC
:105960000347040093051400130707FD6378E60658
:10597000F1F2834504000D461725000013050526A6
:10598000EF00102311CD97270000938727251D8D49
:1059900093070004B397A700424505045D8D2AC80C
:1059A00083450400194617250000130565231309D4
:1059B00014002304B102EF00B01F3DC197A7FFFF01
:1059C0009387476495E74247B2471377071009CF9B
:1059D00091073EC69257D2973ED215B5B38767035B
:1059E00085462E84BA97ADBF9D07E19BA107D5B729
:1059F0007800970600009386E6D526860C084E852B
:105A000097000000E7000000FD572A8AE314F5FC28
:105A100083D7C40093F70704E39A07EA125545BDFC
:105A20007800970600009386E6D226860C084E85FD
:105A3000012AD9BF797156CA9C49BA8A984522D49D
:105A400026D24ECE52CC06D64AD05AC85EC6AA89B5
:105A50002E84B284368A63D3E700BA879CC003479A
:105A6000340419C385079CC01C4093F7070281C703
:105A70009C4089079CC00329040013796900631ABC
:105A80000900130B9401FD5B5C449840998F634CB3
:105A9000F9041C408346340493F70702B336D00060
:105AA000A5EB13063404D2854E85829AFD57630315
:105AB000F5041C4011469840998B544481446397E7
:105AC000C700B384E64063D3040081441C441848F3
:105AD0006354F700998FBE94014969047D5B639814
