:040000006F007023FA
:100004000000000000000000C80A00003C0B0000D3
:1000140000000000340A000000000000000000009E
:10002400340A0000340A0000000000000000000050
:10003400481B0000000000009002000000000000C7
:10004400340A0000340A0000340A0000340A0000B4
:10005400340A0000340A00001C130000A21300003C
:100064002A140000B014000036150000340A000001
:10007400340A0000340A0000340A0000340A000084
:10008400340A0000340A0000340A0000340A000074
:10009400340A0000340A0000340A0000BC150000D1
:1000A400340A0000340A0000340A0000340A000054
:1000B400340A0000340A0000340A0000340A000044
:1000C400340A0000340A0000340A0000340A000034
:1000D400340A00002C1A0000340A0000340A00001C
:1000E40094160000340A0000340A0000340A0000A8
:1000F400340A0000340A0000340A0000340A000004
:1001040000000000340A0000340A0000340A000031
:10011400340A0000340A0000340A0000340A0000E3
:10012400340A0000340A0000340A0000340A0000D3
:10013400340A0000340A0000340A0000340A0000C3
:10014400340A0000340A0000340A0000340A0000B3
:10015400340A0000340A0000340A0000340A0000A3
:10016400340A0000340A0000340A0000340A000093
:10017400340A0000340A0000340A0000340A000083
:10018400340A0000340A0000340A0000340A000073
:10019400340A0000340A0000340A0000340A000063
:1001A400000000000000000000000000000000004B
:0C01B4000000000000000000000000003F
:1001C00097020120938202E4938202E0739002344A
:1001D00003210500224573100530B1A819712320B1
:1001E000250006C006C216CAF322003093F2820030
:1001F000638402009302000816C412C81ACC1ECEF3
:1002000022D026D22AD42ED632D836DA3ADC3EDEB6
:10021000C2C0C6C2CAC4CEC6D2C8D6CADACCDECE26
:10022000E2D0E6D2EAD4EED6F2D8F6DAFADCFEDE96
:1002300003A1050009A002457310153492403785CB
:10024000000013050580732005302245732005301A
:100250004242D2426243F243025492542255B25572
:100260004256D2566257F257064896482649B64932
:10027000464AD64A664BF64B065C965C265DB65DF2
:10028000465ED65E665FF65F09617300203000004F
:10029000197116CA9302000816C49302000273A0D3
:1002A000428006C212C81ACC1ECE22D026D22AD430
:1002B0002ED632D836DA3ADC3EDEC2C0C6C2CAC456
:1002C000CEC6D2C8D6CADACCDECEE2D0E6D2EAD4E6
:1002D000EED6F2D8F6DAFADCFEDE73110134EF3036
:1002E0007003EF30601EEF3070057311013413841A
:1002F00041830329040063040902232004007325B9
:1003000010342AC01384C182044023A02400138423
:100310000183044003A10400024573101534924088
:10032000B78200009382028073A00230A24273A0C1
:1003300002304242D2426243F24302549254225566
:10034000B2554256D2566257F25706489648264949
:10035000B649464AD64A664BF64B065C965C265D25
:10036000B65D465ED65E665FF65F0961730020305B
:1003700000003D432A876373C3029377F700BDEF04
:10038000ADE5937606FF3D8ABA960CC34CC30CC705
:100390004CC74107E36BD7FE11E28280B306C3402E
:1003A0008A069702000096966780A6002307B7008A
:1003B000A306B7002306B700A305B7002305B700BF
:1003C000A304B7002304B700A303B7002303B700B7
:1003D000A302B7002302B700A301B7002301B700AF
:1003E000A300B7002300B700828093F5F50F939622
:1003F0008500D58D93960501D58D61B7939627001D
:100400009702000096968682E78086FA9680C1174A
:100410001D8F3E96E374C3F8A5B701118145494588
:1004200006CE22CC26CA4AC84EC6EF10407B6128B1
:10043000AA85176500001305650FEF5000030144FE
:10044000976900009389890F1769000013098910C3
:10045000A94481454945EF10E079A2854E85EF30EA
:10046000F0701305401FEF40702A85454945EF1095
:1004700060784A85EF30906F05041305401FEF4008
:10048000F028E31894FCF2406244D2444249B24955
:1004900001450561828001118545114506CE02C2E4
:1004A00002C402C6D52E85472312F100371501403C
:1004B0008D473EC44C00C147130505803EC63D2212
:1004C000F240056182800A85828001114EC606CE07
:1004D00022CC26CA4AC8B2896357C00237440140B9
:1004E000AE843389C500130404809305000422857B
:1004F000E92965DD85048385F4FF2285C205C18174
:10050000C121E31499FEF24062444E85D24442492F
:10051000B24905618280970700209387A7CA9C4350
:1005200017170020130787253E95636EE50017F720
:1005300000201307272D6368A70017070020232337
:10054000A7C83E858280FD573E858280B7F7FF1F92
:1005500003A54770828058410C410328C500B706A7
:100560000140938706403E9713C6F5FF63010804D8
:1005700083A80640032885004143B3F8C80023A0A0
:100580001641D443758ED0C31443D58D0CC3184186
:1005900090479346F7FF758E90C7D047F18ED4C72A
:1005A000630B6800C2979443558F98C382801C43A5
:1005B0007D8E10C382809447D98E94C7D447558FBF
:1005C000D8C78280B70701401387074083A7074039
:1005D000584B698F09C77D8D3335A0008280014556
:1005E0008280B707014023AAA740828003A8850024
:1005F000937708011373F80081C7DC413363F3007C
:1006000083D6050093F7F60FA1CB0C418147854EA9
:10061000BD4F130F800293028004214E21A0850755
:10062000638BC7033397FE0033F6E600E319C7FE7A
:1006300013962700B398CF0093C8F8FFB3F5B8001E
:100640003316C300D18D6309E807E31A58FC18C9B3
:100650008507E399C7FD0CC19307F00F63FDD7042D
:1006600083284500A147854EBD4F130F800293029A
:100670008004414E21A08507638DC7033397FE0098
:10068000B3F5E600E319B7FE139627000116B395FC
:10069000CF0093C5F5FFB3F815013316C300B36857
:1006A0001601630DE801E31858FC18C98507E397A4
:1006B000C7FD23221501828058C995B758C965BF67
:1006C00008456D8D3335A00082800CC982804CC9ED
:1006D000828019C20CC982804CC9828093F7C50FF1
:1006E000370701403E978D8914478A05BD47B39768
:1006F000B70093C7F7FFF58F1CC71C47B315B500AC
:10070000DD8D0CC78280371702405C439146B18B68
:100710006385D700A1466384D706B7177A0093870D
:1007200007201CC1371602405842970600209386C6
:10073000668D11833D8B369703470700B3D7E700DB
:100740005CC1584221831D8B36970347070033D77E
:10075000E70018C558422D831D8BBA9603C70600C3
:1007600093864180B3D7E7005CC5584239830D8B2F
:10077000369703470700B3D7E7021CC982805C4362
:10078000B7F6FF1F584383A6C6704166C983BD8B69
:10079000718F139616018907635F06028946638984
:1007A000D70CBD466389D70CC146639DD70A8146E5
:1007B000BD4705EB3747024003270780418B2DCB10
:1007C00037177A0013070720B387E7021CC1B9DA8D
:1007D00085831CC181BF45468146E39CC7FCC94750
:1007E00071DBB7150240D8551316F700D855635979
:1007F000060411833D8B37167A0005071306062081
:100800003356E60210C1D85521833D8B39C7854543
:100810006306B706BD45630AB70609073307C70273
:100820003716024050563D8A05063357C70215A0B9
:1008300037173D0013070790B387E7021CC141BF7C
:100840003D8B1306170037177A001307072033571D
:10085000C702B387E7021CC19DBF1317260032975A
:1008600005837DBFC5466397D7028146C14791B7CF
:100870008146C947B5B78546B54725BF131716004A
:1008800032970E073297058361BF13172600329700
:100890000A0779B7814631BF99C5371702401C4F07
:1008A0005D8D08CF8280B7170240984F1345F5FF42
:1008B000798D88CF82808356050103D76500F5774F
:1008C000FD177971F58F22D426D206D6D98F03D79A
:1008D000C5002318F5002A840355C500AE84FD77B2
:1008E00083D5450003D684009387379F83D6A40021
:1008F000E98FCD8FD18FD58F2316F4008357440114
:100900006800C207C18393F7F7CFD98F231AF40089
:10091000DD3BB7470140938707806303F404D24669
:10092000984093971600B6978E07B6970A07B3D7E5
:10093000E70293064006B250925433F7D7021207EB
:1009400013072703B3D7D7023357D70292073D8B3C
:10095000D98FC207C1832314F400225445618280D9
:10096000E2467DBF81C98357C5000967D98F231629
:10097000F50082800357C500F977FD17F98F23161C
:10098000F500828093F7F50F05479583B315B700FF
:100990006385E7028946130745016387D7001C4337
:1009A00001CADD8D0CC38280130705011C4375FA53
:1009B00093C5F5FFFD8D0CC382801307C500C5B735
:1009C00093F5F51F2312B5008280035505006D8D48
:1009D0003335A000828093F7F50F854695833397D2
:1009E000B600638AD70289466383D70283574501DD
:1009F0007D8F835705000145C207C18301CB0545A3
:100A0000A181B315B500ED8F3335F0008280835797
:100A100005017D8FF9BF8357C5007D8FD9BFA181A7
:100A20008547B395B70093C5F5FFC205C181231073
:100A3000B500828001A07390123497010020938149
:100A400061F817F100201301E15B17750000130531
:100A5000253697F5FF1F9385E55A1386818163FA42
:100A6000C5008322050023A0550011059105E3EA86
:100A7000C5FE1385818197150020938525D0637766
:100A8000B500232005001105E36DB5FEFD4273900E
:100A900002BCFD4273904280B782000093820280C4
:100AA0007390023097F2FFFF9382025693E2320076
:100AB00073905230EF00E01697320000938242BBF1
:100AC00073901234730020305D7182E686E48AE20E
:100AD0008EE012FE16FC1AFA1EF82AF62EF432F2F6
:100AE00036F03AEE3EEC42EA46E872E676E47AE226
:100AF0007EE073110134EF30E0011765000013054B
:100B0000A5A9EF30B006EF306003731101343660F1
:100B1000A660166186617272E2725273C273327598
:100B2000A275127682767267E2675268C268326E88
:100B3000A26E126F826F6161730020305D7182E678
:100B400086E48AE28EE012FE16FC1AFA1EF82AF6F5
:100B50002EF432F236F03AEE3EEC42EA46E872E625
:100B600076E47AE27EE073110134EF20B07A176503
:100B700000001305A5A1EF30607FEF20307C7311DA
:100B800001343660A660166186617272E272527339
:100B9000C2733275A275127682767267E267526806
:100BA000C268326EA26E126F826F61617300203074
:100BB0004111176500001305259F06C622C4EF30BA
:100BC000E07AAD22938781808C431765000013057E
:100BD000E59E37140140EF3060798D3AAA8517659C
:100BE00000001305A59EEF3060781765000013051F
:100BF000E59EEF30A0774530130504808545C13C64
:100C00001304048085452285C9341305401FEF4035
:100C1000E02F22858545653C1305401FEF40002FDE
:100C2000D5B7B71702409843B706FFF041111367D5
:100C3000170098C3D84337150240B7050200758FD7
:100C4000D8C39843B706F7FEFD16758F98C398432F
:100C5000B706FCFFFD16758F98C3D843B70601FF92
:100C6000FD16758FD8C39843B70600ECFD16758F37
:100C700098C33707FF0098C723A6070202C402C61D
:100C80009843C1660566558F98C321A0A247638A21
:100C9000C7001C41ED8F3EC6A24785073EC4B24740
:100CA000F5D7B71702409C431397E700635A070034
:100CB00085473EC6324785476309F7004101828078
:100CC00002C632478547E31BF7FEB7170240D843F9
:100CD0003706C1FF7D16D8C3D843D8C3D4433717CE
:100CE000024093E60640D4C3D443F18ED4C3D44328
:100CF00037062900D18ED4C3944337060001D18E24
:100D000094C31C4393966700E3DD06FE5C433716ED
:100D10000240A146F19B5CC35C4393E727005CC3A0
:100D20005C42B18BE39ED7FE41018280B716024040
:100D3000D842B7177A002146318B93870720630387
:100D4000C70237170240584397F6FF1F9386862C39
:100D500011833D8B369703470700B3D7E70023A4E1
:100D6000F1808280D842D442C16749833D8BFD8E99
:100D7000930727001DCB3D476381E70C41476391F3
:100D8000E7080146BD478DE6374702400327078045
:100D9000418B2DCF37177A0013070720B387E7025F
:100DA00023A4F18059DE858369BF0146C947E9DE86
:100DB000B7150240D8559316F700D85563D10606EB
:100DC00011833D8BB7167A00050793860620B3D6AC
:100DD000E60223A4D180D85521833D8B35C38545B8
:100DE0006305B706BD456309B70609073307D70290
:100DF000B7160240D456BD8A85063357D7020DA8D0
:100E000045470146E391E7F8C147B5BF37173D00B5
:100E100013070790B387E70223A4F18061B73D8BE6
:100E20009306170037177A00130707203357D702A6
:100E3000B387E70223A4F180B5B70546B547A1B74C
:100E4000139726003697058365B7139716003697D4
:100E50000E073697058369BF1397260036970A0752
:100E600041BF85451305000205BC854521452DB4CC
:100E70008545114515B48545414539BC8545130562
:100E8000000419BC13F7F50F9307400663E3E7026C
:100E900093F5F50F9205975700009387A77EAE97BD
:100EA00094437D576387E60083D5C70088476FF07A
:100EB0005F82828013F7F50F93074006014563E8D0
:100EC000E70293F5F50F9205975700009387877B0C
:100ED000AE9794437D57638CE60083D5C70088475F
:100EE000411106C6EFF0CFFDB24041018280828001
:100EF00013F7F50F9307400663E7E708797193F559
:100F0000F50F22D44AD01394450017590000130955
:100F100069774ECEB309890003A7090006D626D209
:100F2000FD576304F70283A74900B284829703A7A1
:100F3000C9008D473EC42312E10041473AC689ECFF
:100F40004A9408444C00EFF06FEAB2502254925495
:100F50000259F2494561828015476387E4020547DB
:100F60006386E402638AF4028947638BF402914743
:100F70006381F40299476389F4029D47E392F4FC8C
:100F8000E1473EC675BF828002C65DBF91473EC63F
:100F900045BFD1473EC66DB7930780023EC64DB7E9
:100FA000930780043EC669BFF1473EC651BF13F8A0
:100FB000F50F93074006194563E1070D93F7F50F09
:100FC00013984700975700009387C76BC29783A871
:100FD00007007D586383080B011122CC06CE26CA78
:100FE0004AC84EC652C403A8C70001440545930829
:100FF000000221A0050463091407B3178500E31B51
:10100000F8FEBD4763C287063A8A3689B289AE8444
:10101000EF20604C13171400B307870097F5FF1FEC
:10102000938545008A07AE97839607002A866383D7
:101030009606FD576394F604B30787008A07AE97B8
:1010400032852390970023A227012391370123A4FF
:101050004701EF200049F2406244D2444249B2497C
:10106000224A014505618280F2406244D2444249ED
:10107000B249224A19450561828082803285EF207B
:101080004046F2406244D2444249B249224A1D4598
:101090000561828003A84700E31D28F903D82700D3
:1010A000E31938F99C47E39647F965B713F7F50F4D
:1010B00093074006194563E4E70893F5F50F975742
:1010C00000009387275C9205BE959841FD57630801
:1010D000F706411122C406C6D4450144054713064C
:1010E000000221A005046307C404B3178700E39B33
:1010F000F6FEBD4763C08704EF20E03D9317140060
:101100003E940A0497F7FF1F9387C7F1A29783962F
:1011100007007D576389E60041677D1798C323A2C6
:10112000070023A40700EF20C03BB2402244014542
:1011300041018280B240224419454101828082806F
:1011400013F7F50F93074006194563EAE70839716D
:1011500093F5F50F26DA52D493944500175A000000
:10116000130A4A52B3079A00944306DE22DC4AD897
:101170004ED656D25AD07D576389E604054763019F
:10118000E60621E6D047854681479305000221A067
:1011900085076388B7143397F600E31BC7FE3D4706
:1011A0006341F714175700001307C7458E07BA9716
:1011B000D84301459357570093870706B396E60037
:1011C0008A0737E700E0BA9794C3F2506254D254CA
:1011D0004259B259225A925A025B2161828082801E
:1011E00083A9C700014405491307000221A0050493
:1011F0006309E40EB3178900E39BF9FEBD4763C2A0
:10120000870EEF20402D93171400A2978A0717FB33
:10121000FF1F130B2BE13E9B03170B00FD57AA8A00
:10122000630FF70CB3079A00DC43829785450545A9
:10123000EFF08FE683572B000D47231231013AC49C
:101240004EC802CA4ACE6386270BD1CF09476396A0
:10125000E70091473EC6C1473ECCD29484444C003F
:101260002685EFF0AFB8B7170140138707C00545D3
:101270006384E40209456381F402938707400D45C6
:10128000638CF400B727014093870780B387F4404D
:1012900093B71700139527009375F40FEFF00FC461
:1012A0000808EFF04FAB975700009387A7350E045F
:1012B0003E94504037E700E09305000593575600F1
:1012C000B306C700938707042380B6408A07854684
:1012D000B396C600BA97568594C3EF208020014587
:1012E000EDB51945DDB5930780023EC6A1473ECC5A
:1012F000ADB7930780043EC6B1473ECCB9BFEF20DF
:10130000401E1945D9B50146975500009385052E15
:10131000176500001305059C6F00F0165D7182E6ED
:1013200086E48AE28EE012FE16FC1AFA1EF82AF60D
:101330002EF432F236F03AEE3EEC42EA46E872E63D
:1013400076E47AE27EE073110134EF20A07C05455B
:10135000EFF04FA701CD17F7FF1F1307A7CC5C4392
:1013600099C3084782970545EFF0AFA7EF20007DAE
:10137000731101343660A660166186617272E27282
:101380005273C2733275A275127682767267E26703
:101390005268C268326EA26E126F826F6161730012
:1013A00020305D7182E686E48AE28EE012FE16FC51
:1013B0001AFA1EF82AF62EF432F236F03AEE3EEC25
:1013C00042EA46E872E676E47AE27EE0731101349E
:1013D000EF2040740945EFF0EF9E05EDEF20007619
:1013E000731101343660A660166186617272E27212
:1013F0005273C2733275A275127682767267E26793
:101400005268C268326EA26E126F826F61617300A1
:10141000203017F7FF1F1307E7C01C4B99C3484B39
:1014200082970945EFF0EF9B55BF5D7182E686E438
:101430008AE28EE012FE16FC1AFA1EF82AF62EF444
:1014400032F236F03AEE3EEC42EA46E872E676E4F4
:101450007AE27EE073110134EF20C06B1145EFF0AA
:101460006F9601CD17F7FF1F1307C7BB5C4F99C3DA
:10147000085382971145EFF0CF96EF20206C73113F
:1014800001343660A660166186617272E272527330
:10149000C2733275A275127682767267E2675268FD
:1014A000C268326EA26E126F826F6161730020306B
:1014B0005D7182E686E48AE28EE012FE16FC1AFA7C
:1014C0001EF82AF62EF432F236F03AEE3EEC42EAFC
:1014D00046E872E676E47AE27EE073110134EF20AA
:1014E00060632145EFF00F8E01CD17F7FF1F130743
:1014F00067B31C5799C3485782972145EFF06F8E09
:10150000EF20C063731101343660A66016618661F6
:101510007272E2725273C2733275A275127682765B
:101520007267E2675268C268326EA26E126F826F93
:101530006161730020305D7182E686E48AE28EE0AC
:1015400012FE16FC1AFA1EF82AF62EF432F236F0C3
:101550003AEE3EEC42EA46E872E676E47AE27EE073
:1015600073110134EF20005B4145EFF0AF8501CDF1
:1015700017F7FF1F130707AB5C5B99C3085F8297E0
:101580004145EFF00F86EF20605B73110134366048
:10159000A660166186617272E2725273C27332750E
:1015A000A275127682767267E2675268C268326EFE
:1015B000A26E126F826F6161730020301D71A2CE26
:1015C00082E686E48AE28EE012FE16FC1AFA1EF823
:1015D0002AF62EF432F236F03AEE3EEC42EA46E8D3
:1015E00072E676E47AE27EE073110134EF208052F5
:1015F00013050002EFE01FFD2DC917F4FF1F1304B0
:1016000064A23C4099C3684082977C4499C32848AF
:1016100082973C4C99C3684C82977C5099C328545C
:1016200082973C5899C3685882971305003EEFE0B3
:101630005FFBEF20A0507311013476443660A66042
:10164000166186617272E2725273C2733275A2754C
:10165000127682767267E2675268C268326EA26E54
:10166000126F826F25617300203013050004EFE0D4
:101670007FF541F513050008EFE0DFF43DFD1305AC
:101680000010EFE03FF435F913050020EFE09FF381
:101690002DF545B71D71A2CE82E686E48AE28EE082
:1016A00012FE16FC1AFA1EF82AF62EF432F236F062
:1016B0003AEE3EEC42EA46E872E676E47AE27EE012
:1016C00073110134EF20004513050040EFE09FEF58
:1016D00049C917F4FF1F1304E4947C5C81C70325F8
:1016E000040882978327840881C70325C40882974A
:1016F0008327440981C70325840982978327040A25
:1017000081C70325440A82978327C40A81C703251A
:10171000040B82978327840B81C70325C40B829710
:101720004165130505C0EFE0DFEBEF2020417311A9
:10173000013476443660A660166186617272E27288
:101740005273C2733275A275127682767267E2673F
:101750005268C268326EA26E126F826F256173008A
:101760002030056513050580EFE0DFE53DF10565F7
:10177000EFE05FE539FD0965EFE0DFE439F9116578
:10178000EFE05FE439F52165EFE0DFE339F171BFA8
:1017900001458280011122CC98412041DC4106CED6
:1017A00026CA4AC818C031472315E400231604008E
:1017B00013F7F700A1466316D7042312040013D7CA
:1017C00047000D8B01C785466304D7049983231313
:1017D00004008D8B05476385E70481C70947638B48
:1017E000E70A231404001848B7470140938707808D
:1017F0006303F704F2406244D24442490145056163
:101800008280A546E31BD7FA05672312E40045BF93
:10181000096799832313E4008D8B0547E39FE7FA5B
:101820009307006018482314F400B74701409387DA
:101830000780E311F7FC116585451105EFF0CF85B1
:1018400037190140930700208D444C00130509808F
:101850002312F100E14726C43EC6EFE03FD99307CB
:101860000040130509804C002312F10091473EC649
:1018700026C4EFE0BFD70848A285EFF0CF83084821
:101880008545EFF02F8EF2406244D2444249014533
:1018900005618280930700402314F400A9B7797191
:1018A00026D29384818CF844B70700C0C166F98FB3
:1018B000A10622D4D58F138401929306500354C8F5
:1018C000B7460140938606807167116513070720AC
:1018D00014C8FCC49756000093860640B7070C0056
:1018E0008545110506D64AD04ECEF4C0B8C418C0FE
:1018F0001CC42322040023160400EFE0FFF9B719EB
:101900000140930700200D494C00138509802312E4
:10191000F100E1474AC43EC6EFE05FCD93070040C7
:10192000138509804C002312F10091473EC64AC43A
:10193000EFE0DFCB0848A285EFE0FFF708488545D8
:10194000EFF04F82A28626851306301097550000CF
:101950009385C5395925B250225492540259F249FF
:10196000014545618280411122C420419305000256
:1019700006C60848EFF06F8511C91C4803D547001B
:101980001375F50FB2402244410182807D55DDBFC1
:10199000411122C4204126C206C6AE8408489305E0
:1019A0000004EFF08F827DD91C48B2402244C2046B
:1019B000C1802392970005459244410182804111E4
:1019C00006C641473C41638CE50245476395E50205
:1019D000D04B884B854613575600130707060A0756
:1019E000B7E700E0B396C6003E9714C301469305DF
:1019F0005052EFE03FF9B240014541018280D04BA7
:101A0000884B85461357560013070704B7E700E0D5
:101A10000A07B396C6003E9714C305469305505275
:101A2000EFE05FF6B2400145410182801D71A2CE18
:101A3000A6CC82E686E48AE28EE012FE16FC1AFA52
:101A40001EF82AF62EF432F236F03AEE3EEC42EA76
:101A500046E872E676E47AE27EE07311013493841C
:101A6000818CEF20200BA040930550520848EFE0F6
:101A70009FF615EDEF20800C731101347644E64497
:101A80003660A660166186617272E2725273C2732A
:101A90003275A275127682767267E2675268C26802
:101AA000326EA26E126F826F256173002030268520
:101AB0008545AD2B084893055052EFE05FF65DBFBA
:101AC00017F5FF1F13058583828017050020130576
:101AD000E58282809387818098439306803E4111FE
:101AE0003357D70206C622C4B7E700E0C1562386A3
:101AF000D7402387D740856623A0D710916623A0BF
:101B0000D710B7F700E023A0070023A20700014584
:101B100088C78145CCC781461306F7FF90CBD4CB4D
:101B20003D4798C3EF10B02A613F2A84793FAA85C8
:101B30002285EF2050212244B240175500001305A2
:101B4000E51A41016F20807E5D7182E686E48AE2BB
:101B50008EE012FE16FC1AFA1EF82AF62EF432F265
:101B600036F03AEE3EEC42EA46E872E676E47AE295
:101B70007EE073110134EF10F079B7F700E023A293
:101B80000700EF105019EF10707B731101343660AD
:101B9000A660166186617272E2725273C273327508
:101BA000A275127682767267E2675268C268326EF8
:101BB000A26E126F826F61617300203019CE78417E
:101BC000B28783D50700035626001C43411106C681
:101BD0008297B2400145410182807D55828097F70E
:101BE000FF1F9387A771F8432E86AA85032307005A
:101BF0003E85028397F7FF1F93874770F8432E8631
:101C0000AA85032347003E85028397F7FF1F93872A
:101C1000E76EF843AA853E8503238700028305CA41
:101C2000914581476384B6003E8582807C4183551F
:101C3000060041119C4722C406C6328482972311B4
:101C4000A400B240224491473E85410182808147F1
:101C50003E85828015C6914581476384B6003E85E6
:101C600082807841B28783D50700035626005C4303
:101C7000411106C68297B24091473E85410182805C
:101C800081473E858280411106C697F7FF1F9387E3
:101C9000E7664947D8CB17070000130787F8D8DB5A
:101CA00017070000130747FBECC3B0C3AA8598DFF2
:101CB0000D46170700001307A7F03E8523A0070273
:101CC00023A2070223A4070223A6070223A80702D0
:101CD000D8DFEF10B021B2400145410182807C4144
:101CE00023280504232A050403A307006305030032
:101CF0009305850402830145828001114AC806CEFE
:101D000022CC26CA4EC652C4368991EAF2406244B9
:101D10004A85D2444249B249224A05618280AA8456
:101D20003284330AD600A94909A89315870105040E
:101D3000E18526858296E30B44FDFC4003470400C1
:101D40009447E31437FF83D7A401B545268593F75D
:101D50000704E1DF8296FC40034704009447F1B793
:101D600013F7051011C78357850193F70710DDCBD3
:101D700093F7054091C78357850193F70740DDC36B
:101D8000411126C206C622C44AC093F70504930433
:101D900000048DC73C4993F5F50F231DB5002A8437
:101DA0008DCB19C393E50510C58D231DB400B2403A
:101DB0002244924402490145410182808354A50195
:101DC0003C4993F5F50F231DB50093F404042A84D0
:101DD000E9FB79DB68452981420541813105EF2026
:101DE000407F70442A89310529824206814541821B
:101DF0002320A900EF10907A78402322090083570E
:101E0000A40158432324090093E70710C145232860
:101E10002405231DF4001306001022850297835524
:101E2000A40159B76155828089462A87638CD50001
:101E30008D466389D5028546638ED5007C4103A318
:101E40004700028383578501014593E70702231C5E
:101E5000F700828083578501014593F7F7FD231C26
:101E6000F700828032881DC654427C450346C50176
:101E7000A982A983C206C207C182C183638EF6000C
:101E80001D4505EE8327080001453CC78327480010
:101E90007CC7828001458280832708003CC5832758
:101EA00048007CC565DA7C41411106C69C43C28569
:101EB0008297B2400145410182808280ADC2835742
:101EC000A501011122CC26CA4AC84EC652C456C228
:101ED00006CE5AC093F70710368A2A893284B68410
:101EE000FD59A94A9DEF832749044A85DC4782971B
:101EF000630435032300A400FD140504630E55019B
:101F0000FDF05285F2406244D2444249B249224A2D
:101F1000924A024B0561828033059A40E5B701453C
:101F2000828083290505854AEF10E05A83D669002F
:101F300083D749002A88138716004207418383A567
:101F40008900638FD7028327C90403A6090042854D
:101F5000A983B296C20703CB0600C1832393E9008D
:101F6000FD146364F700239309006394550123A4CF
:101F70000900EF100057230064010504D5F451B7A0
:101F8000F9F1EF100056330A9A40A5BF0347C50187
:101F9000854763E7E7008357A50193F7071099E3A7
:101FA00001458280411122C42A84284906C6EF20B7
:101FB000E07A78408357A40123280404584393F718
:101FC000F7EF231DF400228513060010C545029784
:101FD000B2402244014541018280170700001307E7
:101FE00047D018D5170700001307C7D758D51707CC
:101FF00000001307E7F918D917070000130747EC8B
:1020000058D917070000130787CF18DD42061707B6
:1020100000001307A7E1232A05002320050223223D
:10202000050258DD34C141826F10406C93F5F50F05
:1020300085476383F5008280011122CC26CA4AC8F5
:102040004EC606CE52C4AA8420497D59854919A09E
:10205000EF102049FC402685DC4782972A8A630AD4
:102060002505EF104047035744001C40BA972380D2
:10207000470183574400F8448507C2072983C18379
:1020800042072312F400418363E5E70023120400B2
:10209000814783566400E39DF6FA8507C207C18332
:1020A0002313F40023243401E3E4E7FA23130400A8
:1020B00045B79C509DCFEF10004283574400835595
:1020C00064003384B74063F8B700E0449D8D2980F5
:1020D000420441800D8CEF10C040A285624403A3EE
:1020E0000402F2404249B249224A2685D24405619F
:1020F0000283F2406244D2444249B249224A056115
:102100008280B707EFBE37E700E0938707083CC738
:10211000014582804111175500001305A5C406C66C
:10212000EF20C024B240014541018280011122CC40
:10213000004106CE26CA4AC84EC6630A8502AA8452
:10214000975900009389C938175900001309893835
:1021500031A0EF20A0210040638B84004E859305C1
:10216000C4FEEF20A0201C404A85E39497FEF24075
:102170006244D2444249B24905618280411106C697
:1021800022C426C24AC02E89EF10D055AA84EF205F
:10219000F02303240900630C8900130544FFEF10AA
:1021A000705463D3A400AA840040E31889FEEF2092
:1021B000D023A14763CA970081C8B2402244268534
:1021C0000249924441018280B2402244A1442685C2
:1021D00002499244410182807971054506D622D494
:1021E00026D24AD04ECE52CC56CA5AC85EC662C417
:1021F00066C26AC0EF20E06313094500CA85AA8958
:1022000017550000130545E1953FAA84AA85175686
:102210000000130666E017550000130565E0EF2087
:10222000E0141384F4FF975A0000938AAAE77D5ABA
:1022300099C47D145685EF206013E31C44FF1755A5
:102240000000130525E2EF20601203A44900630596
:10225000890A975C0000938C2CE5054C894B114B47
:10226000175D0000130D4DE7975A0000938A0AE6A8
:10227000175A0000130ACAE497590000938989E3AA
:1022800003479402930644FF2146A6856685EF2006
:10229000E00D83478402BD8B638B8709638D7709CB
:1022A000BDCB638E6709584C930730028346070005
:1022B000639DF606BA8793063002850703C60700BA
:1022C000E30DD6FE03280402930640060848B30532
:1022D0000701B387F540B386D702585C5C50898DFF
:1022E0004286175500001305E5DFB3D60603EF203D
:1022F000E0070040E31689F8B25022549254025984
:10230000F249624AD24A424BB24B224C924C024DA5
:102310000145456182805685EF204005584C930762
:10232000300283460700E387F6F8BA8761BF4E851F
:10233000EF20C0038DBF5285EF204003ADB76A8503
:10234000EF20C0028DB70111094506CE22CC26CA66
:102350004AC84EC652C456C25AC0EF20804D130917
:102360004500CA85AA89175500001305E5C439350B
:10237000AA84AA8517560000130606C41755000044
:10238000130545C4EF10907E1384F4FF975A0000A4
:10239000938A4AD17D5A99C47D145685EF10107DD9
:1023A000E31C44FF17550000130585C3EF10107C94
:1023B00003A44900175B0000130B0BC5975A0000DC
:1023C000938A8AC3174A0000130A4A19630D8902C7
:1023D000104493098400930644FF03570401814786
:1023E000638EC90210428507E39EC9FE2146A68579
:1023F0005685EF10B0774E85153B5285EF1010775C
:102400000040E31789FCF2406244D2444249B24999
:10241000224A924A024B0145056182802146A685E7
:102420005A85EF10B074E9BF0111114506CE22CCD8
:1024300026CA4AC84EC652C456C25AC0EF20603F90
:1024400013094500CA85AA89175500001305059B85
:102450003533AA84AA85175600001306269A175505
:1024600000001305259AEF1070701384F4FF975A3B
:102470000000938A2AC37D5A99C47D145685EF10B3
:10248000F06EE31C44FF175500001305E599EF10AB
:10249000F06D03A44900175B0000130B6B9C975A67
:1024A0000000938A6A9A174A0000130A2A0B630CE9
:1024B0008902104493098400930644FF1848638FEF
:1024C000C902814710428507E39EC9FE2146A685C1
:1024D0005685EF10B0694E8591395285EF1010691D
:1024E0000040E31889FCF2406244D2444249B249B8
:1024F000224A924A024B0145056182802146A68507
:102500005A85EF10B066E9BF01110D4506CE26CA07
:102510004AC84EC622CC52C456C2EF20803113099D
:102520004500CA85AA89175500001305A5A2B9312F
:10253000AA84AA85175600001306C6A117550000E5
:102540001305C5A1EF10906291CC1384F4FF975A44
:102550000000938A2AB57D5A7D145685EF101061CC
:10256000E31C44FF17550000130585A1EF10106010
:1025700003A44900630E890297590000938949A278
:10258000184413068400930644FF5C480348340152
:1025900081486306E60018438508E31EE6FE2147EE
:1025A0002146A6854E85EF10705C0040E31A89FC39
:1025B000F2406244D2444249B249224A924A014519
:1025C000056182800111154506CE22CC26CA4AC873
:1025D0004EC652C456C25AC0EF20A025130945006A
:1025E000CA85AA89175500001305C588413EAA84EB
:1025F000AA85175600001306E68717550000130535
:10260000E587EF10B0561384F4FF975A0000938AC1
:102610006AA97D5A99C47D145685EF103055E31C84
:1026200044FF175500001305A587EF10305403A48D
:102630004900175B0000130BEB89975A0000938A3F
:10264000EA87174A0000130A6AF1630089041044FC
:1026500093098400930644FF0357640183574401A0
:102660000148638FC90210420508E39EC9FE214656
:10267000A6855685EF10904F4E85EFF03FAB528503
:10268000EF10D04E0040E31489FCF2406244D24483
:102690004249B249224A924A024B01450561828071
:1026A0002146A6855A85EF10704CE9BF01111945E6
:1026B00006CE22CC26CA4AC84EC652C456C25AC0FA
:1026C000EF20201713094500CA85AA891755000075
:1026D0001305C581EFF09FAAAA84AA8517560000AA
:1026E0001306C6801755000013050581EF1010482A
:1026F0001384F4FF975A0000938ACA9A7D5A99C4AA
:102700007D145685EF109046E31C44FF17550000DA
:1027100013054580EF10904503A44900175B0000A6
:10272000130B0B82975A0000938A4A80174A0000C5
:10273000130ACAE2630E89021044930984009306C7
:1027400044FF035784018147638FC9021042850704
:10275000E39EC9FE2146A6855685EF1030414E8581
:10276000EFF0DF9C5285EF1070400040E31689FCCB
:10277000F2406244D2444249B249224A924A024B50
:102780000145056182802146A6855A85EF10103EDD
:10279000E9BF59712545CAD0CECE86D6A2D4A6D2DD
:1027A000D2CCD6CAEF20E008AA8913094500974782
:1027B00000009387A7D20A8797460000938606D722
:1027C00003A80700C8438C47D0472320070148C30C
:1027D0000CC750C7C1074107E394D7FECA85174508
:1027E00000001305255BEFF07F99AA84AA851746A0
:1027F00000001306265A174500001305255AEF104E
:10280000F0361384F4FF81CC975A0000938A8A89AA
:102810007D5A7D145685EF107035E31C44FF174533
:1028200000001305255AEF10703403A44900630219
:102830008904D14A175A0000130A0ACA97490000AE
:102840009389895A03288400980821469317280001
:10285000BA97A6854E85930644FF528763E40A0122
:1028600003A707FB83470401EF1050300040E31B30
:1028700089FCB650265496540659F649664AD64AFB
:102880000145656182800111294506CE26CA4AC8E4
:102890004EC622CC52C456C2EF10B079130945007F
:1028A000CA85AA891755000013054586EFF01F8DCC
:1028B000AA84AA85175600001306468517550000FE
:1028C00013054585EF10902A91CC1384F4FF974AA5
:1028D0000000938A2A7D7D5A7D145685EF101029B9
:1028E000E31C44FF1755000013054585EF10102821
:1028F00003A4490063028904975A0000938A4A8618
:10290000175A0000130A0A88975900009389C9864C
:102910005C4C184C5685930644FF2146A685EF1063
:10292000F0248347D4FF4E85858B91E35285EF10C9
:10293000F0230040E31E89FCEF00703DAA85175587
:10294000000013052585EF107022F2406244D24446
:102950004249B249224A924A0145056182800111E9
:10296000174500001305854022CC4AC806CE26CA6A
:102970004EC652C4EF10901F9387C1811389018204
:10298000804383270900637BF40297490000938901
:10299000293F174A0000130AEA3E0440CE85094643
:1029A0002685EF20B034A68509C550405285EF102A
:1029B000F01B832709003104E361F4FEF240624416
:1029C000D2444249B249224A01450561828001113F
:1029D000175500001305C5C522CC4AC806CE26CA25
:1029E0004EC652C4EF1090189387C181138901829B
:1029F000804383270900637CF40297590000938980
:102A0000E9C4175A0000130AEAC40440CE851946E7
:102A10002685EF20B02D9385640009E5504052854E
:102A2000EF10D014832709003104E360F4FE17454A
:102A300000001305A5B2EF107013F2406244D244B7
:102A40004249B249224A014505618280054582809A
:102A50001D71A6CA86CEA2CCCAC8CEC6D2C4D6C262
:102A6000DAC05EDE62DCAA84AA95930700022547DD
:102A700003840400338995406304F4006314E40084
:102A80008504FDB70145631E0900F6406644D6443F
:102A90004649B649264A964A064BF25B625C256176
:102AA0008280014B13070002A54631A0638DD70039
:102AB000630B5901568B930A1B00B387540183871C
:102AC0000700E395E7FE9387C18103AA0700938778
:102AD000018283AB0700637C7A03175C0000130C50
:102AE000ECB683290A001946E2854E85EF201020B6
:102AF0005686A68511E913856900EF20301FDA9903
:102B000001E5838779009DC7310AE36C7AFD26874A
:102B100019C405078307070093F7F7FDFDFB175559
:102B20000000130565AF23000700A685EF10100411
:102B30007D55A1BF83298A00E38B09FC130A81001C
:102B400002C402C602C802CA02CC02CE02D002D21D
:102B500002D402D6D28EA68701470145130800028F
:102B6000A545A94F130E2002130FC00563040401ED
:102B7000631BB4006379270523800700850703845E
:102B800007000507E5B76303F5056376270F05051D
:102B9000630BC407B308E94023A0FE00BE98BE86BD
:102BA00029A0630CB400638DD80485060384060055
:102BB0003386E6001D8EE31604FF63732605910E2F
:102BC000B687328765B7A9476317F50A175500001E
:102BD000130545A2EF108079041817540000130460
:102BE00064A383250A002285110AEF102078E39A56
:102BF00044FF1745000013056596EF10207729451F
:102C00002C00829959B583861700850723A0FE0002
:102C10000507638BC607E37527FF038317009388B7
:102C20001700130617006381E6039A866389C603BB
:102C30003287C687E37626FD038317009388170043
:102C400013061700E393E6FF9A86E313C3FF838618
:102C500027009388270013062700E39BC6FDE37136
:102C600026FB23800800050693861800E37A26F9E0
:102C700003841800A9B749F50384040093070002F0
:102C80002687E316F4E861BD3A86BE88C9BF83078C
:102C900005006387071079719387C1814ECE9389B0
:102CA000018262C403AC070083A7090026D252CC7C
:102CB00056CA5AC85EC606D622D44AD066C2AA846C
:102CC000814A014B175A0000130A4A98975B00008B
:102CD000938BCB986368FC007DA083A70900310C1F
:102CE0006370FC08832C0C001946D2856685EF20A2
:102CF000E07F65F52685EF20407E13896C002A86EB
:102D0000CA852685EF20807E2A8461F963170B002F
:102D10004A85EF20807C2A8BCA8A83870A008DC768
:102D200003876C0015C36391E7024A87D68731A0F9
:102D30000306070001CA6397C6008507838607005C
:102D40000507FDF63384574163536401228BCA851E
:102D50005E85EF10A06183A70900310CE364FCF8E5
:102D600063830A022254B2500259F249624AB24BBA
:102D7000224C924C5A86D685424BD24A2685925492
:102D800045616F10800EB250225492540259F2499C
:102D9000624AD24A424BB24B224C924C45618280ED
:102DA000814501452DB1411106C6EFF0EFC2B24099
:102DB000014541018280411106C6EF102075B240E5
:102DC000014541018280938781818843411106C674
:102DD000EF00904EB24001454101828097570000BC
:102DE000938787E523AEF18097570000938787FA92
:102DF00023A0F182975700009387C7F9411123A2BE
:102E0000F18293050021975700009387A7F80545A5
:102E100023A4F18206C622C426C2EF10B01123AC4F
:102E2000A18039C5A9472D47930600400146970563
:102E3000000093852519175500001305A58DEF1087
:102E4000B075938781812A848843814601469755CE
:102E500000009385A58CEF001033814401C42285C6
:102E6000EF206011B24022442685924441018280C5
:102E70001755000013058588EF10404FFD54DDB74E
:102E8000411106C622C4EFF07FBC21C1B77768208C
:102E90009387D73617E7FF1F2326F74A97E7FF1FC9
:102EA0002384074A17E4FF1F1304C4492285EF2037
:102EB000C06222959307E0032300F500A3000500FC
:102EC000B2402285224441018280B7776E73938796
:102ED000679617E7FF1F2327F746896793878706BB
:102EE00017E7FF1F2312F74697E7FF1F238F0744BB
:102EF00055BF411122C42A84175500001305C5830C
:102F000006C6EF10A046AD3FAA851306A41B1755B1
:102F100000001305E582EF106045B24022440145F0
:102F200041018280411126C206C622C44AC0AA8439
:102F3000EF00A07435C9938481819C402A8483A7C3
:102F4000C720638DA70493053014EF00607E39E538
:102F500003A904000325C92019C9EF0030079C40CC
:102F6000814503A5C720EF00301103A90400814566
:102F70001305A91B13060005EFD0AFBF23150920C9
:102F80002326892022852244B24092440249970593
:102F90000000938585E341016F00100EB24022448A
:102FA00092440249410182802244B2400249A685EE
:102FB0009244174500001305657241016F10003BF4
:102FC0005D71CAC0138981818327090086C6A2C4A6
:102FD00003C7470283A6C720A6C24EDE52DC56DADC
:102FE0005AD85ED662D466D26AD06ECE1367170006
:102FF0002382E702638906486135EF102037ED49E7
:1030000003240900A54A130BF007974C0000938C8A
:103010006C72174A0000130AEA70A14B354C01A8E4
:1030200003250900FD55EF0070190324090003254D
:10303000C42085461306F100FD55EF00E07D85476D
:10304000E310F5FE8304F10003240900638C340DC2
:103050001C50638BA70C09476381E706E9D8638D91
:103060005427638A640D6388740D8347A4206384A6
:10307000841B29476381E41A1307F004637EF71267
:103080002305042001472297230D971A8347440202
:10309000858BADEF8347A4200347B4208507050740
:1030A00093F7F70FA305E4202305F4201307F0049A
:1030B000E37FF7F6231504209DBF23200402930726
:1030C00010046387F40A93072004638AF41C9307AF
:1030D00040046381F42E93073004E391F4F88347AE
:1030E000B4200347A420E3F4E7F4A2978385A71B49
:1030F0001745000013054563EF104027032409001E
:103100008347B4208507A305F42015B7A685174586
:10311000000013056561EF10602503240900834753
:10312000A4209DBF08D021B79307B0056382F40E99
:103130002320040225B70346B420E30A06EE8347A2
:10314000A4207D161376F60FFD1793F7F70F2305CE
:10315000F420A305C4206363F61E6685EF100021EA
:10316000032409008347A420A297238D071AC1B521
:1031700083576402E38D07EAFD17C207C183939565
:103180002700BE9592051307A41B9385A502A2955F
:10319000130600052313F4023A85EF20800AEF207E
:1031A000C0331375F50F2305A420A305A4202285A1
:1031B000893303240900A5BD0346B4203E87E37488
:1031C000F6EC9305A61B1305B61BA2952295338634
:1031D000C740EF009045032409000347B420B3071C
:1031E000E400238D971A83474402BA84858B639346
:1031F00007268347A420E353F7EA5285EF10001710
:103200000324090085048347A420E3C8F4FE69B5BC
:1032100089471CD029BD035D8402B9CB9147930D2A
:10322000A41B63FFA71B9304A41613060005EE85D9
:103230002685EF10B07E0DCD130DA4026A85130D07
:103240000D0513060005EA85EF10B07FE398A4FF93
:103250001306000581452685EFD0AF910346A420D3
:10326000EE852685EF10F07D95472314F402154D69
:103270002313A403EFF08FFD85476300F512EFF0F1
:103280003FC0EF10A00E032409001306000581457E
:103290001305A41BEFD0EF8D2315042049BB8356E3
:1032A0008402035764029387F6FF6344F712E380B6
:1032B00006D8C207C1832313F40293952700BE9555
:1032C00092059307A41B9385A502A29513060005FA
:1032D0003E85EF101077E1B58347B42081CF81445C
:1032E0005285EF10A0080324090085048347B42009
:1032F000E3C8F4FE1735000013054526EF1000075C
:10330000EFF0CFF485471304A41B6301F514EFF02D
:103310003FB72286AA851745000013056542EF10C6
:10332000E004032409001305A41BEF20001B137500
:10333000F50F2305A420A305A420D5B99305B61B3A
:103340001305A61BA2953386C7402295EF00F02DEA
:1033500083270900174500001305453D03C7A72033
:103360003E97230D071A83C5B7209385A51BBE95ED
:10337000EF00D07F032409008344B4208347A420B6
:10338000E3C797CA5285EF00707E032409008504C5
:103390008347A420E3D897FE59B903250900834742
:1033A0004502858BE1EB8345A5201305A51BEFF0B6
:1033B0002FEAF1B58347B420E38B07C65285EF00AF
:1033C000F07A032409008347B420FD17A305F420F5
:1033D000B9B993071700C207C1832313F402F1BDE3
:1033E00063020D029307FDFF139527003E9512051A
:1033F0001305A50213060005EE852295EF10106255
:10340000E30805E613152D006A9512051305A502BC
:103410001306000581452295EFC0BFF5835784024E
:103420000346A420EE85139527003E95120513054B
:10343000A5022295EF10F060035784020507131DC3
:103440000701135D0D012314A4031DB52285EFF0C0
:103450001F8475BD1307A71BB305E40017450000C3
:1034600013050507EF009070032409000347B420FB
:10347000BA8441B3173500001305450EEF00106FF5
:10348000032509000DB7EF00F069E30705B6EFF07B
:103490007FA99DB61106719A130806F837C7ADDEED
:1034A000C2871307F7EE98C39107E31EF6FEA167E4
:1034B000938707882320A6F82322D6F82324B6FA78
:1034C0002324F6F84285828037F700E01C43860704
:1034D00085831CC382802165130505807315053023
:1034E0008280731005308280938741839C4399E3E7
:1034F00023A6A18223A8B182854723AAF18237F7A8
:1035000000E01C43B7060080D58F1CC382809387E0
:10351000818388438280938781839C43411106C6BF
:10352000850723ACF182EF10B0063C45FD173CC582
:1035300089C7B24041016F1050427C413CC5EF1039
:10354000900BB24041016F10504163420502930657
:10355000803EB367D502B387D7023347D5021385C0
:10356000773E3345D502B307D7023E9582807D551D
:10357000828001458280411122C406C626C21754AA
:1035800000001304248297570000938727826374F6
:10359000F4029754000093845481818CF198910433
:1035A000A294970700009387870211A01C40110482
:1035B0008297E31D94FE2244B240924441016FD0B1
:1035C0002FDF0145828001458280014582804111C3
:1035D00022C406C626C2174400001304E47B9747A2
:1035E00000009387277C6374F4029744000093845F
:1035F000547B818CF1989104A294970700009387E3
:10360000C7FC11A01C4011048297E31D94FEB24038
:1036100022449244410182804111D14715479306CB
:103620000020014697050000938525F51745000009
:103630001305851106C6EF102076B24041016F10C8
:103640009013411106C6413DEFE0CFC8EF00705A1C
:10365000EF10103CEF10403DC137EF10103CD52467
:10366000EF102040B240014541018280411106C661
:10367000C93FB24001454101828001114EC606CECC
:1036800022CC26CA4AC8AA89EF10807019C1EF104F
:10369000E0532545EF10E01940411309450063163A
:1036A00024010DA8004063072403930444FF21462E
:1036B000CE852685EF00C07E75F5EF10606D19C1CF
:1036C000EF10A052F240624426854249D244B249EA
:1036D00005618280EF10C06B81447DF1F24062444D
:1036E00026854249D244B2490561828021C14111F7
:1036F00022C42A842E8526C24AC006C63289AE84D8
:10370000AD3F1DE122852686A545EF100015014538
:10371000231C2401230E0400231D0400B240224474
:1037200092440249410182807D55CDBF7D55828002
:1037300083578501011122CC06CE26CA13F7070153
:103740002A8411EF185501CB2EC60297AA8435E5BD
:1037500083578401B24593E70701231CF400A18B32
:1037600085E35C54A9C722858297AA8405C1E957DD
:10377000630EF500F24062442685D24405618280E2
:103780008357A401A18BF1DFE554EDB78355A40164
:103790008347C40193E58500231DB4008507230EEC
:1037A000F400F24062442685D24405618280856738
:1037B0009387F7F0FD8D8144E1BF2A86A2851745E6
:1037C00000001305E5F8EF00703A6DB78347C501B7
:1037D000A9C34111FD1722C406C693F7F70F230EA4
:1037E000F5002A84814689EB1C5981CF8297AA86ED
:1037F00009C9E9576308F500B24022443685410102
:1038000082808146231D0400B24022443685410156
:103810008280FD5636858280411106C60347C50168
:1038200011CF0323450363050300B2404101028326
:1038300069558923B2400145410182807D551D2B88
:10384000B240014541018280411106C60347C501CE
:1038500011CF0323850363050300B24041010283B6
:103860006955092BB2400145410182807D551923DC
:10387000B2400145410182800CD101458280011195
:1038800026CA938441899C4006CE22CC4AC84EC6A3
:1038900052C463859706054A99A080405C40184051
:1038A0001309C4FE5CC398C340C000C0EF100032CF
:1038B0007C504A8591C382974A85EF106016630752
:1038C0004505EF1080324E85EFF0BFC14848EF004C
:1038D000F0684A85EF1020119C4063819702EFF059
:1038E0009FBF9C40AA89E39A97FA6244F240D2446F
:1038F0004249B249224A05616FF0BFBEF2406244BC
:10390000D2444249B249224A056182804A85EF0089
:10391000907FEF10802D4E85C9BF411126C206C68B
:1039200022C497E4FF1F938424B317E4FF1F1304FA
:10393000A4B11C40110491C38297E31C94FE81370B
:10394000EDB7411122C417E4FF1F1304E4A7228539
:10395000930800023D489307002017E7FF1F130755
:10396000A7AF814617060000130666FB97450000C7
:10397000938585E106C6EF10E03C22852244B240E3
:1039800041016F10405F41114AC032892E8689453E
:1039900022C426C22A8406C6B684EF00106C9307A0
:1039A0004401A3049400231E24011CCC5CC8B24033
:1039B0002244924402490145410182809387018853
:1039C0009C43797122D406D626D24AD04ECE52CC10
:1039D0002EC62A8491C38297EFF0FFAF8357C401AC
:1039E0002A8AE9E3B247E9C7EF10803A23280502A3
:1039F00083499400AA8413094401EF10404663866A
:103A0000090685476392F9025C486300F90683C69C
:103A1000540303C7170263F7E604D4431387440132
:103A200098C294CCD8C3DCC8B247634BF00452852B
:103A3000EFF03FABEF100006845881E89387C18711
:103A40009C43814499C322858297B2502254268593
:103A500002599254F249624A4561828003C71702B3
:103A6000E3EDE6FA9C43E31BF9FE184C938744010F
:103A70001CC398CC1CCCB24723AA2401E359F0FA0A
:103A80001389C404700081454A85EF10A0684A85F7
:103A9000EF1060595285EFF0DFA4EF00B07F84583B
:103AA000D1DC65B7FD17231EF400EFF09FA379B7B3
:103AB000EFF03FA3F95451BF938781879C43411195
:103AC00022C406C626C22A8491C38297EFF0BFA003
:103AD0005C4813074401AA846381E7021385C7FE8B
:103AE000EF10A0432685EFF0DF9FEF00B07AB240E1
:103AF000224492440145410182808357C4018507D5
:103B0000231EF400EFF0FF9DB24022449244014591
:103B100041018280011106CEEFF0FF9B1387C18324
:103B200083C74184184385072382F18401C72AC6CD
:103B300002973245F24005616FF0BF9A011106CE3F
:103B4000EFF07F991387018483C741841843FD17E1
:103B50002382F18401C72AC602973245F2400561EB
:103B60006FF03F9803C541848280011122CE26CC9C
:103B700013730804AA88974F0000938FAFF0630671
:103B80000300974F0000938FAFE5937308016381A3
:103B900003141378E8FF9E84130F000213752800A6
:103BA0006303051463450614137548001304B0023B
:103BB000630D051863110614930600032300D1005A
:103BC0000143854E768863D3FE003E883307074164
:103BD000130EF7FFA1E0631A04146358E01813866C
:103BE000180046871305000272966374B70023001D
:103BF000A7000507B306E640E349D0FE9346FEFF63
:103C0000FD86B376DE001307FEFF158F8506B69896
:103C1000130EF7FF63130412639D0302B386C801FA
:103C2000468685066350E0146374B6002300E601FF
:103C300005063387C640E349E0FE9346FEFFFD8656
:103C4000B376DE001307FEFF158F8506B698130EB8
:103C5000F7FF3305D84146959306000363DF0E0F47
:103C600063F4B8002380D8008508E39BA8FE8DC7C5
:103C700013081300B3066100AA87B308050163F6B1
:103C8000B70003C606002380C70085073386F840C7
:103C9000FD16E346C0FE429593061E00AA87130652
:103CA0000002AA966352E00263F4B7002380C700C3
:103CB00085073387F640E349E0FE1347FEFF7D8723
:103CC000337EEE00050E72957244E24405618280F7
:103CD0001375180093741801130F0003E31005EC1B
:103CE000130F000265BD0144E30806EC29A033066A
:103CF000C0401304D0020143A94239A811827E9525
:103D0000034E05001308130033050101A30FC5FF7F
:103D1000C28EE30906EA42831375F600E39056FE6D
:103D20003375D6023356D602D9BF635AE0028546B0
:103D3000130EE7FFE315D7EA795E63F4B80023803A
:103D40008800728785087D1EC1BD137888003334D2
:103D500000011604E30206E679BF468509BF130E8B
:103D6000E7FFE1BF72877D1EEDB59306E7FF72871F
:103D7000368E5DB5411122C406C62A84E53319C5C5
:103D800023A48184B240224441018280EF1040008C
:103D900065D900D9B2402244410182808D4763F247
:103DA000C70693773500A5EF93F7F50F9396870035
:103DB000D58F939607013D47DD8E6376C70693073F
:103DC00006FFC19BC107AA972A8714C354C314C70F
:103DD0004107232ED7FEE39AE7FE1378C6003D8AFB
:103DE000630208029307C6FFF19B9107BA97110778
:103DF000232ED7FEE31DF7FE0D8A1307F6FF11E60B
:103E00008280AA871307F6FF65DE0507E205E185D4
:103E10003E978507A38FB7FEE39DE7FE82801307D9
:103E2000F6FFAA87DDB72A8775BF63F2A50233873D
:103E3000C500637EE500B307C50015C67D17830680
:103E40000700FD172380D700E31AF5FE8280B30632
:103E5000C500AA8711CA85050387F5FF8507A38FCB
:103E6000E7FEE39AD7FE8280828015CAAA8629A03F
:103E70004286BE866305080285050387F5FF9387A2
:103E800016001308F6FFA38FE7FE7DF36309080011
:103E900036968507A38F07FEE39DC7FE828082804A
:103EA00015CE8306050083C7050013871500B38769
:103EB000F640E207E1878DE79307150085C22E964D
:103EC000630EE6000507838607000345F7FF8507B5
:103ED0003385A6406205618519E1FDF201458280C6
:103EE0003E8582808307050089CBAA8785070387E3
:103EF00007006DFF3385A74082800145828079717C
:103F000056CA5AC85EC606D622D426D24AD04ECE4B
:103F100052CC62C4B30AB5002A8B3683AE8B63F5EC
:103F2000AA00934BF5FFFD5A830706005A85638D5F
:103F3000073A41699304B00293090002130A300260
:103F40007D19130750026380E70463745501230051
:103F5000F5008307160005050506E5F7330B6541F7
:103F600063860B006377552D23000500B250225461
:103F70005A8592540259F249624AD24A424BB24B94
:103F8000224C45618280830516009307D0020148C8
:103F900013070003130416006383F502638595027B
:103FA0006387350363894503639BE5021368180043
:103FB00022868305160013041600E391F5FE1368AC
:103FC00008012286FDB7136848002286DDB7136812
:103FD00088002286F9BF136808022286D9BF13879A
:103FE00005FDA547AE8863FAE7069307A0027D5753
:103FF0006387F5089306E002FD57638FD50293F6B9
:10400000B5FF1306800681486397C600050493F840
:10401000F50F830504009385B5FD93F5F50F930621
:10402000300563E3B61E17360000130666768A0570
:10403000B2959441B296828683061400A547130672
:104040001400938806FDB68563F8171F9307A00236
:10405000638CF620328481475DB70147A5469317EC
:1040600027003E97050406074697830804001307B8
:1040700007FD938708FDC685E3F3F6FEA5BF03277A
:10408000030013042600830526001103E35407F6FA
:104090003307E04013680801B1BF13680804C14644
:1040A0001306C006130C43006386C800130680067F
:1040B000638FC80003260300D685EFF01FAB83078C
:1040C0001400130614006283E39D07E641BD937557
:1040D0002800032603006384051A42064186E9BFCF
:1040E000A1467DBF13682800A9465DBFA9464DBF04
:1040F0008326030011036382061E03860600630104
:10410000062283851600368619A08305160005064B
:10411000EDFDB305D6406355F00063D3B700BE850F
:10412000137808011306F7FF630508186358B01EDB
:10413000B307B50063765501038806002300050127
:1041400005058506E398A7FE930616003E8513062F
:10415000140013080002BE9663DBE500637455018A
:10416000230005010505B387A640E3C9F5FE8307D3
:104170001400E39807DCDDB3FD566309D71003266E
:104180000300C146D685130C4300EFF01F9E830742
:104190001400130614006283E39507DAC1B31378A1
:1041A00008019306F7FF6307080E130843006376C0
:1041B0005501832703002300F5009305150093871D
:1041C00016003E9513061400AE8713070002635BCA
:1041D000D01263F457012380E7008507E31BF5FE47
:1041E000830714003385D5004283E39C07D4BDB315
:1041F00063765501930750022300F5000505130669
:10420000140083071400B5B7637655019307500275
:104210002300F5008307040013071500A5C7637486
:104220005701A300F50009051306140083071400C5
:1042300089B7A38F0AFE1DBB8148A54E050693973B
:10424000280083050600C6978607B697138E05FDDE
:10425000938807FDAE86E3F3CEFF93C7F8FFFD8793
:10426000B3F7F800328461BB832703008305240081
:10427000110393C6F7FFFD86F58F090449B3337622
:1042800026011DBD3A85330B6541D9B91368180065
:104290002147F5B5B307D50013060002635AD004D1
:1042A000637455012300C5000505E39BA7FEFD5679
:1042B000EDBDB307B740AA971308000263DBE5041E
:1042C00063745501230005010505E31BF5FE3387E3
:1042D000E54032971306F7FF91BD9305E00497364A
:1042E00000009386A67905B5014BE3810BC89DB903
:1042F0009306E7FF13084300E36D55EB93051500A4
:10430000130614008307140042832E85E39B07C223
:10431000B1B19307E7FF32873E8609BDAA872DB565
:104320008145D5BB9387C18488438280411126C2D1
:104330009384C1844AC006C622C403A90400EFF0D6
:10434000CFB309CD2A84884019C1EFF02FC8930557
:1043500030042285EFF0CFBD23A68184B2402244F1
:104360004A85924402494101828082803971130357
:1043700041022ED232D436D62A869A869305F00789
:1043800017D5FF1F1305452D22CC06CE26CA138450
:10439000C1843AD83EDA42DC46DE1AC6EFF03FB6B8
:1043A000AA8608400DCD8354A5019307F00713E7B3
:1043B0000404231DE50063E1D70217D6FF1F13068F
:1043C000A6298145EFF04FC81C40F2406244239D6E
:1043D0009700D244216182809306F007F9BF17D578
:1043E000FF1F130565275137F2406244D244216113
:1043F00082804111173500001305C55F06C6BD3721
:10440000173500001305C55F9537173500001305F4
:104410002562173700001307E7608D4605468D4576
:10442000B137B240173500001305856241013DBF29
:1044300021C19377F50F85E7C167938707F0E98F6F
:10444000B1E7B707FF00E98F95E79737000093873B
:10445000274961813E950345050065058280173730
:1044600000001307E747BA9703C5070005058280D8
:104470000145828041859737000093876746137511
:10448000F50F3E9503450500450582802185973748
:1044900000009387E7441375F50F3E95034505002B
:1044A000250582809387418598435C41BA976306CE
:1044B000F50283D6270095E2938601859442638EA8
:1044C000F600938681859442638CF602D043B3064E
:1044D000E54050C1DC43BA9794C71445B307D700F1
:1044E000630FF50003D6270019EA13868185104271
:1044F000630BA6005041D0C35C413E9714C7828035
:1045000023ACA184E1B723ACF184EDB79387018696
:104510008C434111173500001305055806C6B935FF
:104520009387C1868C4317350000130525583D3D00
:104530009387C185B2408C43173500001305455859
:1045400041016FF0BFE213F7C5FFE14663F9E600F2
:1045500093073500F19B930687FE63FAF6002E86DB
:10456000AA85173500001305A55F6FF03FE04111E4
:10457000096606C61D8F130606EA90C3930647FF19
:1045800049663388D700D4C323A40700130606EA7C
:1045900021172320C8002322D8002324D800054651
:1045A0008146973500009385255B17D5FF1F1305BE
:1045B000A51223A0E18623AAF18423A80185EFF0A8
:1045C0008FBC938741859C43B24023ACF184410169
:1045D0008280411106C622C426C241C113840186CD
:1045E0001C4093043500F19863E99706B14763E4F2
:1045F000F406FD5517D5FF1F1305050EEFF00FBC90
:104600009387818503A8070093874185904383287A
:104610000400B307C840B385984063F1B702330480
:10462000F60083562400584099E6B306F7401385F8
:1046300046FF637B9502BA87E363B7FE17D5FF1F7A
:1046400013058509EFF04FC701442285B24022448B
:10465000924441018280B14469BF01442285B24045
:1046600022449244410182809385C186138EC18584
:10467000138384018C41032E0E0063776504854704
:10468000AE962311F40023A6D1866374DE0023AE18
:10469000D1848967938707EA2310F40063058806AD
:1046A00017D5FF1F13054503EFF00FC193878186D0
:1046B0009C433104D9DB2285A68582972285B240AE
:1046C00022449244410182809386C400BE96330501
:1046D000D60058C10967130707EA18C11CC554C0A2
:1046E0005C4105472311E400B10863841701B297C8
:1046F00094C79387C500A69723A6F186E37BFEF8AF
:1047000023AEF18479B783572800D9DB93870185DD
:1047100098436315E80069B7630B07010328480055
:10472000329883572800EDFB23AC018595BF23AC5D
:10473000E184BDB7411126C2B304B50222C406C646
:104740002685413D2A8409C526868145EFF00FE57F
:104750002285B2402244924441018280630A050CC2
:10476000938741869C43411122C406C626C24AC093
:104770002A8491C38297138941858327090063673F
:10478000F400938701859C436368F400B24022449F
:104790009244024941018280FD5517D5FF1F130540
:1047A000A5F3EFF0AFA1835764FF930444FF81CBDF
:1047B000035744FF8967938707EA6303F7021735B6
:1047C00000001305A534EFF07FBA835644FF03566B
:1047D00064FFA6851735000013050535EFF01FB9F6
:1047E0009387818598438967938707EA231B04FE93
:1047F000231AF4FE63F4E40023AC91849387C1860A
:104800009C43832684FF032709002685958F998C76
:10481000BE9423A69186EFF0FFC82244B240924492
:10482000024917D5FF1F130525EB41016FF0CFA8F3
:10483000828097C5FF1F9385E58A2E878147214691
:10484000144341076387A6008507E39BC7FE014524
:10485000828092073385F500828001114AC817C90A
:10486000FF1F130929884EC652C456C206CEB28A0B
:1048700022CC26CA5AC02A8AAE894A878147214655
:1048800029A085074107638CC7061443E39BD9FE23
:1048900093944700330B9900152E03244B00938704
:1048A0004400CA97638587000040E39F87FE352E4A
:1048B00093E909F823043A012146D6855285EFF0A1
:1048C000CFDA938701879C4399C352858297EFE0A3
:1048D0009FC003274B009307CA00F2405CC3232606
:1048E000EA002322FB0023288A006244D244424982
:1048F000B249224A924A024B05616FE09FBEF924F9
:10490000832740000290938741879C43411122C432
:1049100006C62A8491C3829723040400EFE0BFBB3C
:10492000544418489307C400B240D8C214C31CC8EA
:104930005CC4224441016FE0DFBA01114EC697B951
:10494000FF1F9389297A06CE22CC26CA4AC852C4B0
:1049500056C24E878147214629A0850741076381BA
:10496000C7081443E31BD5FE13944700338A89001C
:10497000AA840325CA00AE8AEFF0BFC52A8939C5CB
:104980000326CA008145EFF06FC121462304990038
:10499000A3040900D6854A85EFF02FCD93870187C0
:1049A0009C4399C34A858297EFE0FFB283264A0071
:1049B0001307C90093074400D8C22326D900232235
:1049C000EA00CE972328F900EFE0BFB1F24062443D
:1049D0004A85D2444249B249224A924A05618280BC
:1049E0008327C0000290938741879C43411122C4D2
:1049F00006C62A8491C3829723040400EFE0BFAD6A
:104A0000544418489307C400D8C214C31CC85CC4DB
:104A1000EFE03FAD22852244B24041016FF01FD448
:104A2000030585007D8182802398018897D7FF1F29
:104A3000938787CC17D7FF1F130707D4DCC39CC30A
:104A4000A107E39DE7FE3D47938741892382E188E3
:104A500023A4018823AE018823ACF18823AAF1881E
:104A600082809387C1898843411106C6EFF05F9C1D
:104A70007D159317350017D5FF1F1305E5C73E9524
:104A80000841B2409307C5FE23A4F18821054101E6
:104A90006FB00FF341114AC006C622C426C2EFE030
:104AA0009FA383D701892A89A9EB9387C18988436A
:104AB000EFF01F987D151317350097D7FF1F9387C9
:104AC000A7C3BA9784439387818880439385C4FEA4
:104AD0006305B4029387C1889C432382A18823A4E1
:104AE000B18899C32285829783C741841305C40185
:104AF0009385840099CBEFE03F9F2244B2409244DB
:104B00004A85024941016FE0DF9DEFB02FED22445D
:104B1000B24092444A85024941016FE09F9C411195
:104B200022C406C62A84EFE01F9B03474403834741
:104B3000540313064401419B9396370013671700F3
:104B400097D7FF1F938747BB230AE402B697CC434E
:104B50009386C189185C90C103A806000CCCD0C311
:104B60005CC82244B2403367070198C241016FE03C
:104B70005F97411122C406C62A84EFE0DF951C4CE2
:104B8000544813074401DCC294C38347540358C8F4
:104B900018CC1397370097D7FF1F9387E7B5BA97BD
:104BA00098436307F7002244B24041016FE07F93CE
:104BB0001C5C1387C1891843224493C7F7FFB24096
:104BC000F98F23AEF18841016FE0BF91411106C614
:104BD000EFE07F901387018983570700B240850774
:104BE0002310F70041016FE0DF8F411106C6EFE0AF
:104BF0009F8E83D70189FD17C207C1872398F1884B
:104C00006356F000B24041016FE0BF8D23980188E8
:104C1000EFE03F8D938781889C4389C7B240410173
:104C20006FF05FE7B2404101828041119387818834
:104C300022C4804306C626C2EFE0FF89AA842285EB
:104C40000D3F9147230AF4021305C4046D26228503
:104C5000EFF01FDD85476305F5029387418998438F
:104C60009306440123AAD18854C358C81CCC268576
:104C7000EFE03F872244B240924441016FF09FE150
:104C80003C5CE1FF2285EFF01FC8D5B75049144DB9
:104C90004111795706C618D954C21307450190C26D
:104CA00018CD58C9EFF0BFE7B24041016FF09FDE69
:104CB000411106C622C426C22A844AC051050CD01E
:104CC00050D0930530023A8608CC48C814D458D442
:104CD00036853E89C284EFF06F8C585410544C5086
:104CE000085071173A9697060000938646F4EFE055
:104CF0006FFA48CC8147230B2403A30A2403232CF7
:104D0000040264C024C423280402230A0402232CBE
:104D10000406232E04060147A28617060000130688
:104D200026F7A2851305C40441249387018A9C4376
:104D300099C322858297B240224492440249014598
:104D400041018280011126CAB2842E86854522CC7B
:104D50004AC84EC652C456C25AC006CE3689BA890F
:104D60003E8AC28A2A84468BEFF03FAF2285624496
:104D7000F2405A88D687024B924A5287CE86224A00
:104D8000B2494A86A6854249D24405616FF05FF276
:104D9000938781888843828001114AC82E89AA8519
:104DA000054522CC26CA4EC652C456C206CEB2898A
:104DB000B6843A8ABE8AEFF05FB82A8411CD268580
:104DC000EFF03F8105C5AA865688D28726874E8692
:104DD000CA852285EFF0DFED2285F2406244D2449D
:104DE0004249B249224A924A056182802285EFF007
:104DF0009FBF0144D5B7411106C6EFE0CFED9387C1
:104E00008188984385462A8683474703BD8B6396EE
:104E1000D700544B1C4F6399F6003285EFE06FECDE
:104E2000B240014541018280DCC294C383475703ED
:104E30009306470114CF1396370097D7FF1F938728
:104E4000A78BB297D04314C210CFD4C35CCBEFE092
:104E50004FE9EFF03FC4B24001454101828041116A
:104E600006C622C426C24AC0834745030547BD8BF8
:104E70006394E7042A84EFE00FE6834744032A891A
:104E80002285C19B93E72700230AF402EFF07FCE2F
:104E90001305C4041D2C4A85EFE0AFE49387818A93
:104EA0009C43814499C322858297B240224426853F
:104EB0000249924441018280FD54C5BF011106CED2
:104EC00022CC26CA4AC82AC6EFE0EFE09387818841
:104ED00080432A89228561379304C4047000814588
:104EE00026850D2C268581224A85EFE08FDFEFF0A5
:104EF0007FBA1858F9576314F70023280402F240C8
:104F00006244D2444249014505618280411106C68E
:104F1000EFE0AFE3B240410155B7411106C622C4EC
:104F200026C2834745030947BD8B6394E7042A845F
:104F3000EFE06FDA5448184C93074401AA84D8C2B2
:104F400014C31CCC5CC81305C40441222685EFE0C1
:104F50004FD92285EFF0BFBC9387418A9C4381449F
:104F600099C322858297B24022442685924441010A
:104F70008280FD54CDBF411106C6834665030547B7
:104F80003317D70018DD0947A30AD502230AE50223
:104F9000EFF0BFF8938781889C4399C3EFF09FAFF0
:104FA000B240014541018280011126CA52C4BE842B
:104FB000328A2E86A94522CC4AC84EC62A8406CEFD
:104FC000B6893A89F998EFF05F8993074401A30401
:104FD0009400232E4401232034032322240323247A
:104FE00004021CCC5CC8F2406244D2444249B2493B
:104FF000224A05618280411106C622C42A84EFE05C
:105000008FCD5448184C93074401D8C214C31CCC0C
:105010005CC8EFE00FCD2285EFF0FF8EB240224456
:10502000014541018280411106C622C426C22A845C
:10503000EFE06FCA1C4C5848930444015CC398C30A
:105040008347940004CC44C8F99BA304F400EFE028
:105050004FC99387C1879C4399C322858297EFE00C
:105060000FCB5C50AA971CD4EFE0EFC69387818BDF
:1050700003A84700B708008093C8E8FF9843630E71
:10508000F8001454504BB305D6406304D60063F6C1
:10509000B800BA879843E316F8FE44C358C884C3DF
:1050A000834694001387C18A184393E616001CCCEC
:1050B0000507A304D40023A6E18AEFE08FC2B24023
:1050C0002244924401454101828083479500858BAB
:1050D000A1C3938781879C43411122C406C62A84B9
:1050E00091C38297EFE02FBF5448184C93074401B7
:1050F000D8C214C31CCC5CC8EFE0AFBE8347940099
:105100000145F99BA304F400B2402244410182808E
:105110007D55828085476387F50263D0B702894752
:105120006386F5028D476398F5008347950093E702
:105130002700A304F50001458280F5FD1C425CD1E7
:10514000014582805C5101451CC2828083479500E5
:10515000F59BA304F50001458280797106D626D21D
:105160004ECE52CC56CA5AC85EC662C422D44AD069
:10517000EFE0EFB9AA84370A0080EFE0CFB52A8CC0
:105180009389818B134AEAFF938B018B138B418B9D
:105190008D4A03A40900630F34055C481309C4FE5B
:1051A0004A859D8C63689A0483A70B0091C38297FC
:1051B0005C401840484414445CC398C340C000C0DD
:1051C0008296EFE0CFB483270B00AA844A8591C36F
:1051D0008297834754FF13F7370093F7E70FA30A2B
:1051E000F4FEE31857FB4A85EFF0FFE303A4090040
:1051F000E31534FB2254B25092540259F249624AE8
:10520000D24A424BB24B6285224C45616FE06FAD92
:105210009387818BDCC39CC38280828001476314A7
:10522000E60001458280B307E5000507B386E50087
:1052300083C7070083C6F6FFE383D7FE3385D740D5
:105240008280B3C7A5008D8B3307C50081E78D47EA
:1052500063EEC700AA876370E50A83C60500850769
:105260008505A38FD7FEE3EAE7FE828093763500BB
:10527000AA8791CA83C6050085078505A38FD7FE37
:1052800093F63700FDB79376C7FF138606FE63F0EB
:10529000C70683A3050083A2450083AF850003AF43
:1052A000C50083AE050103AE450103A3850183A8B4
:1052B000C5019385450223A0770003A8C5FF23A25B
:1052C000570023A4F70123A6E70123A8D70123AAA7
:1052D000C70123AC670023AE17019387470223AEB3
:1052E00007FF75B790419107910523AEC7FEE3EB29
:1052F000D7FEE3E4E7F68280CDC183A7C5FF411165
:1053000022C406C626C21384C5FF63D307003E9499
:10531000AA842D299387018C9C4399EB23220400B6
:1053200023A0818C2244B24026859244410105A1EC
:10533000637EF40014403307D4006396E70098437B
:10534000DC43369718C05CC0E1BFBA87D84319C3A5
:10535000E37DE4FE94433386D700631F860010404C
:10536000B29694C33386D700E31EC7FA104358435E
:10537000B29694C3D8C37DB76375C400B1479CC0CF
:1053800055B71040B306C4006316D7001443584302
:10539000B29614C058C0C0C371B78280011126CA2A
:1053A00093843500F19806CE22CC4AC84EC6A1049B
:1053B000B14763F1F404B14463E0B4042A89792667
:1053C0009387018C98433A8431E09387418C9C43C6
:1053D00091E781454A85C92823A2A18CA6854A85E3
:1053E000E120FD5963173507B1472320F9004A85AD
:1053F000B92E29A0E3D204FCB1471CC10145F240FB
:105400006244D2444249B249056182801C40858F82
:1054100063CE0702AD4663F6F6001CC03E9404C09E
:1054200031A05C406312870223A0F18C4A850526D7
:105430001305B4009307440061993307F54061D325
:105440003A94898F1CC065BF5CC3CDB722874040AA
:10545000A5BF130435007198E30385FCB305A44090
:105460004A859920E31D35FB41B739713EDA2ED2CA
:1054700032D436D63AD842DC46DE9387C18022CC7D
:10548000804326CA06CEAA8409C41C4C99E322850F
:1054900091220C4454102686228536C60526F240F9
:1054A0006244D24421618280411122C42A842E8523
:1054B00097C7FF1F23A2072C06C6EFB0CF85FD5765
:1054C0006319F50097C7FF1F9387072B9C4391C370
:1054D0001CC0B240224441018280AA87850703C7CD
:1054E000F7FF6DFF3385A7407D15828005C67D16C9
:1054F0000147B307E500B386E50083C7070083C60D
:1055000006006396D7006304C7000507FDF33385E3
:10551000D740828001458280411122C406C62A8478
:105520002316B5002317C5002320050023220500FC
:10553000232405002322050623280500232A05002D
:10554000232C0500214681451305C505EFA07FE208
:10555000971700009387478C5CD0971700009387BC
:10556000A78E1CD4971700009387E7925CD49717F7
:1055700000009387A79500D01CD8B2402244410177
:10558000828097150000938525CC99AA411126C2E7
:10559000130680069384F5FFB384C4024AC02E89A3
:1055A00022C406C693854407EFF05FDF2A8401CD4D
:1055B0002320050023222501310508C41386840613
:1055C0008145EFA01FDB2285B2402244924402496C
:1055D000410182801C4DA5E7411106C622C49707F0
:1055E0000000938747FA1CD5938701819C432324AD
:1055F000050423260504232805046314F5008547C4
:105600001CCD2A84352848C022851D2808C422853F
:10561000052848C4484001469145EFF0FFEF084493
:105620000546A545EFF05FEF48440946C945EFF050
:10563000BFEE85471CCCB24022444101828082806B
:1056400041119387018126C284434AC006C69C4CFF
:1056500022C42A8981E72685EFF0DFF7938484044A
:105660008044DC40FD1763D607009C40B9CF8440DE
:10567000C5BF0317C40039E7C17785072322040695
:105680002320040023220400232404005CC42328D4
:105690000400232A0400232C04002146814513051D
:1056A000C405EFA01FCD232A0402232C04022324C7
:1056B0000404232604042285B24022449244024971
:1056C000410182801304840671BF91454A85EFF041
:1056D000FFEB88C049FDB1472320F9000144E1BF39
:1056E000797122D44AD052CC56CA5AC85EC606D660
:1056F00026D24ECE2A8AAE8A130485040149054B70
:10570000FD5B09ECB25022544A8592540259F24989
:10571000624AD24A424BB24B45618280044483299B
:105720004400FD1963D409000040E1BF83D7C400E1
:10573000637BFB008397E40063877701A68552852E
:10574000829A3369A90093848406E1BF82808280B3
:105750001C46FD171CC663D90700184E63C5E70039
:10576000A9476393F500A5A71C422E851387170050
:1057700018C22380B7008280011122CC26CA4AC8F1
:105780004EC652C406CE2A89AE893284B304D600EE
:105790007D5A63149400014511A8834504004E8688
:1057A0004A85EFF0FFFA0504E31545FFF240624435
:1057B000D2444249B249224A05618280357122CDE4
:1057C00026CB4AC94EC706CF52C556C35AC1DEDEE4
:1057D000E2DCE6DAAA89AE843289368409C51C4D3A
:1057E00099E3EFF03FDF972700009387273D639D04
:1057F000F40C83A4490083D7C400A18BE5CB9C485B
:10580000F5C793070002A304F1029307000302D235
:105810002305F10222C6930B5002972A0000938AB7
:10582000EA3D054C294B4A848347040099C36391A0
:10583000770FB30C2441638E0C00E6864A86A6855A
:105840004E85EFF07FF3FD576308F51E9256E696FE
:1058500036D2834704006381071EFD5713091400E5
:1058600002C802CE3ECA02CCA309010482D48345F9
:10587000090015465685EF00303613041900C2475B
:1058800051E913F7070109C713070002A309E1044F
:1058900013F7870009C71307B002A309E104834681
:1058A00009001307A002638FE606F2474A84814687
:1058B00025460347040093051400130707FD63788A
:1058C000E60AADCA3ECEBDA09727000093870731F8
:1058D0006395F40083A4890039BF9727000093875C
:1058E000E72BE39AF4F083A4C90031B7A6854E856F
:1058F000D92D01D97D55FA406A44DA444A49BA495A
:105900002A4A9A4A0A4BF65B665CD65C0D61828035
:10591000050419BF330555413315AC00C98F3EC886
:105920002289B1B7324793064700184336C6634908
:1059300007023ACE034704009307E002631FF7040F
:10594000034714009307A002631BF702B247090440
:10595000138747009C433AC663C107023ECA35A875
:105960003307E04093E727003ACE3EC8E1B7B3875C
:10597000670385462E84BA972DBFFD57C5B705042A
:1059800002CA814681472546034704009305140057
:10599000130707FD6378E606F1F2834504000D4620
:1059A0001725000013050526EF00102311CD9727BA
:1059B0000000938727251D8D93070004B397A70048
:1059C000424505045D8D2AC8834504001946172504
:1059D000000013056523130914002304B102EF002E
:1059E000B01F3DC197A7FFFF9387C76195E7424767
:1059F000B2471377071009CF91073EC69257D29747
:105A00003ED215B5B387670385462E84BA97ADBFDE
:105A10009D07E19BA107D5B7780097060000938604
:105A2000E6D526860C084E8597000000E7000000AA
:105A3000FD572A8AE314F5FC83D7C40093F70704C3
:105A4000E39A07EA125545BD780097060000938651
:105A5000E6D226860C084E85012AD9BF797156CA2E
:105A60009C49BA8A984522D426D24ECE52CC06D62C
:105A70004AD05AC85EC6AA892E84B284368A63D3B5
:105A8000E700BA879CC00347340419C385079CC04C
:105A90001C4093F7070281C79C4089079CC00329DB
:105AA000040013796900631A0900130B9401FD5B6C
:105AB0005C449840998F634CF9041C40834634043D
:105AC00093F70702B336D000A5EB13063404D28552
:105AD0004E85829AFD576303F5041C401146984099
